{"Contracts/AgeVerification.sol":{"AgeVerification":{"abi":[{"anonymous":false,"inputs":[{"indexed":true,"internalType":"address","name":"previousOwner","type":"address"},{"indexed":true,"internalType":"address","name":"newOwner","type":"address"}],"name":"OwnershipTransferred","type":"event"},{"inputs":[],"name":"TRANSFER_REQUEST_ID","outputs":[{"internalType":"uint64","name":"","type":"uint64"}],"stateMutability":"view","type":"function"},{"inputs":[{"internalType":"address","name":"","type":"address"}],"name":"checkAddress","outputs":[{"internalType":"uint256","name":"","type":"uint256"}],"stateMutability":"view","type":"function"},{"inputs":[{"internalType":"uint256","name":"","type":"uint256"}],"name":"checkID","outputs":[{"internalType":"address","name":"","type":"address"}],"stateMutability":"view","type":"function"},{"inputs":[],"name":"getSupportedRequests","outputs":[{"internalType":"uint64[]","name":"arr","type":"uint64[]"}],"stateMutability":"view","type":"function"},{"inputs":[{"internalType":"uint64","name":"requestId","type":"uint64"}],"name":"getZKPRequest","outputs":[{"components":[{"internalType":"uint256","name":"schema","type":"uint256"},{"internalType":"uint256","name":"slotIndex","type":"uint256"},{"internalType":"uint256","name":"operator","type":"uint256"},{"internalType":"uint256[]","name":"value","type":"uint256[]"},{"internalType":"string","name":"circuitId","type":"string"}],"internalType":"struct ICircuitValidator.CircuitQuery","name":"","type":"tuple"}],"stateMutability":"view","type":"function"},{"inputs":[],"name":"owner","outputs":[{"internalType":"address","name":"","type":"address"}],"stateMutability":"view","type":"function"},{"inputs":[{"internalType":"address","name":"","type":"address"},{"internalType":"uint64","name":"","type":"uint64"}],"name":"proofs","outputs":[{"internalType":"bool","name":"","type":"bool"}],"stateMutability":"view","type":"function"},{"inputs":[],"name":"renounceOwnership","outputs":[],"stateMutability":"nonpayable","type":"function"},{"inputs":[{"internalType":"uint64","name":"","type":"uint64"}],"name":"requestQueries","outputs":[{"internalType":"uint256","name":"schema","type":"uint256"},{"internalType":"uint256","name":"slotIndex","type":"uint256"},{"internalType":"uint256","name":"operator","type":"uint256"},{"internalType":"string","name":"circuitId","type":"string"}],"stateMutability":"view","type":"function"},{"inputs":[{"internalType":"uint64","name":"","type":"uint64"}],"name":"requestValidators","outputs":[{"internalType":"contract ICircuitValidator","name":"","type":"address"}],"stateMutability":"view","type":"function"},{"inputs":[{"internalType":"uint64","name":"requestId","type":"uint64"},{"internalType":"contract ICircuitValidator","name":"validator","type":"address"},{"components":[{"internalType":"uint256","name":"schema","type":"uint256"},{"internalType":"uint256","name":"slotIndex","type":"uint256"},{"internalType":"uint256","name":"operator","type":"uint256"},{"internalType":"uint256[]","name":"value","type":"uint256[]"},{"internalType":"string","name":"circuitId","type":"string"}],"internalType":"struct ICircuitValidator.CircuitQuery","name":"query","type":"tuple"}],"name":"setZKPRequest","outputs":[{"internalType":"bool","name":"","type":"bool"}],"stateMutability":"nonpayable","type":"function"},{"inputs":[{"internalType":"uint64","name":"requestId","type":"uint64"},{"internalType":"uint256[]","name":"inputs","type":"uint256[]"},{"internalType":"uint256[2]","name":"a","type":"uint256[2]"},{"internalType":"uint256[2][2]","name":"b","type":"uint256[2][2]"},{"internalType":"uint256[2]","name":"c","type":"uint256[2]"}],"name":"submitZKPResponse","outputs":[{"internalType":"bool","name":"","type":"bool"}],"stateMutability":"nonpayable","type":"function"},{"inputs":[{"internalType":"uint256","name":"","type":"uint256"}],"name":"supportedRequests","outputs":[{"internalType":"uint64","name":"","type":"uint64"}],"stateMutability":"view","type":"function"},{"inputs":[{"internalType":"address","name":"newOwner","type":"address"}],"name":"transferOwnership","outputs":[],"stateMutability":"nonpayable","type":"function"}],"evm":{"bytecode":{"linkReferences":{},"object":"60806040523480156200001157600080fd5b5062000032620000266200003860201b60201c565b6200004060201b60201c565b62000104565b600033905090565b60008060009054906101000a900473ffffffffffffffffffffffffffffffffffffffff169050816000806101000a81548173ffffffffffffffffffffffffffffffffffffffff021916908373ffffffffffffffffffffffffffffffffffffffff1602179055508173ffffffffffffffffffffffffffffffffffffffff168173ffffffffffffffffffffffffffffffffffffffff167f8be0079c531659141344cd1fd0a4f28419497f9722a3daafe3b4186f6b6457e060405160405180910390a35050565b612c1880620001146000396000f3fe608060405234801561001057600080fd5b50600436106100ea5760003560e01c8063a87231141161008c578063c76d084511610066578063c76d084514610276578063f1435326146102a6578063f2fde38b146102d6578063fee207e6146102f2576100ea565b8063a8723114146101e6578063b45c0fdf14610216578063b68967e214610246576100ea565b8063715018a6116100c8578063715018a61461015b5780638d94f0bb146101655780638da5cb5b1461019557806396bf4741146101b3576100ea565b80630ddcfe8e146100ef57806337ba95231461011f57806363ec508f1461013d575b600080fd5b61010960048036038101906101049190611505565b610322565b604051610116919061154b565b60405180910390f35b61012761033a565b6040516101349190611638565b60405180910390f35b6101456103c6565b6040516101529190611669565b60405180910390f35b6101636103cb565b005b61017f600480360381019061017a91906116b0565b6103df565b60405161018c91906116ec565b60405180910390f35b61019d610412565b6040516101aa91906116ec565b60405180910390f35b6101cd60048036038101906101c89190611733565b61043b565b6040516101dd94939291906117f0565b60405180910390f35b61020060048036038101906101fb9190611733565b6104f3565b60405161020d919061189b565b60405180910390f35b610230600480360381019061022b91906118b6565b610526565b60405161023d9190611911565b60405180910390f35b610260600480360381019061025b9190611bd6565b610555565b60405161026d9190611911565b60405180910390f35b610290600480360381019061028b9190611733565b6108d4565b60405161029d9190611df4565b60405180910390f35b6102c060048036038101906102bb91906116b0565b610a1d565b6040516102cd9190611669565b60405180910390f35b6102f060048036038101906102eb9190611505565b610a5b565b005b61030c60048036038101906103079190611fd7565b610ade565b6040516103199190611911565b60405180910390f35b60066020528060005260406000206000915090505481565b606060048054806020026020016040519081016040528092919081815260200182805480156103bc57602002820191906000526020600020906000905b82829054906101000a900467ffffffffffffffff1667ffffffffffffffff16815260200190600801906020826007010492830192600103820291508084116103775790505b5050505050905090565b600181565b6103d3610d7f565b6103dd6000610dfd565b565b60056020528060005260406000206000915054906101000a900473ffffffffffffffffffffffffffffffffffffffff1681565b60008060009054906101000a900473ffffffffffffffffffffffffffffffffffffffff16905090565b600260205280600052604060002060009150905080600001549080600101549080600201549080600401805461047090612075565b80601f016020809104026020016040519081016040528092919081815260200182805461049c90612075565b80156104e95780601f106104be576101008083540402835291602001916104e9565b820191906000526020600020905b8154815290600101906020018083116104cc57829003601f168201915b5050505050905084565b60036020528060005260406000206000915054906101000a900473ffffffffffffffffffffffffffffffffffffffff1681565b60016020528160005260406000206020528060005260406000206000915091509054906101000a900460ff1681565b60008073ffffffffffffffffffffffffffffffffffffffff16600360008867ffffffffffffffff1667ffffffffffffffff16815260200190815260200160002060009054906101000a900473ffffffffffffffffffffffffffffffffffffffff1673ffffffffffffffffffffffffffffffffffffffff160361060c576040517f08c379a000000000000000000000000000000000000000000000000000000000815260040161060390612118565b60405180910390fd5b6000600260008867ffffffffffffffff1667ffffffffffffffff1681526020019081526020016000206000015403610679576040517f08c379a0000000000000000000000000000000000000000000000000000000008152600401610670906121aa565b60405180910390fd5b6106cb8686600360008a67ffffffffffffffff1667ffffffffffffffff16815260200190815260200160002060009054906101000a900473ffffffffffffffffffffffffffffffffffffffff16610ec1565b600360008767ffffffffffffffff1667ffffffffffffffff16815260200190815260200160002060009054906101000a900473ffffffffffffffffffffffffffffffffffffffff1673ffffffffffffffffffffffffffffffffffffffff166367e1d50486868686600260008d67ffffffffffffffff1667ffffffffffffffff1681526020019081526020016000206040518663ffffffff1660e01b81526004016107799594939291906125c8565b602060405180830381865afa158015610796573d6000803e3d6000fd5b505050506040513d601f19601f820116820180604052508101906107ba9190612657565b6107f9576040517f08c379a00000000000000000000000000000000000000000000000000000000081526004016107f0906126d0565b60405180910390fd5b60018060003373ffffffffffffffffffffffffffffffffffffffff1673ffffffffffffffffffffffffffffffffffffffff16815260200190815260200160002060008867ffffffffffffffff1667ffffffffffffffff16815260200190815260200160002060006101000a81548160ff0219169083151502179055506108c78686600360008a67ffffffffffffffff1667ffffffffffffffff16815260200190815260200160002060009054906101000a900473ffffffffffffffffffffffffffffffffffffffff16610fd1565b6001905095945050505050565b6108dc6113fa565b600260008367ffffffffffffffff1667ffffffffffffffff1681526020019081526020016000206040518060a00160405290816000820154815260200160018201548152602001600282015481526020016003820180548060200260200160405190810160405280929190818152602001828054801561097b57602002820191906000526020600020905b815481526020019060010190808311610967575b5050505050815260200160048201805461099490612075565b80601f01602080910402602001604051908101604052809291908181526020018280546109c090612075565b8015610a0d5780601f106109e257610100808354040283529160200191610a0d565b820191906000526020600020905b8154815290600101906020018083116109f057829003601f168201915b5050505050815250509050919050565b60048181548110610a2d57600080fd5b9060005260206000209060049182820401919006600802915054906101000a900467ffffffffffffffff1681565b610a63610d7f565b600073ffffffffffffffffffffffffffffffffffffffff168173ffffffffffffffffffffffffffffffffffffffff1603610ad2576040517f08c379a0000000000000000000000000000000000000000000000000000000008152600401610ac990612762565b60405180910390fd5b610adb81610dfd565b50565b6000610ae8610d7f565b600073ffffffffffffffffffffffffffffffffffffffff16600360008667ffffffffffffffff1667ffffffffffffffff16815260200190815260200160002060009054906101000a900473ffffffffffffffffffffffffffffffffffffffff1673ffffffffffffffffffffffffffffffffffffffff1603610bba5760048490806001815401808255809150506001900390600052602060002090600491828204019190066008029091909190916101000a81548167ffffffffffffffff021916908367ffffffffffffffff1602179055505b8160600151600260008667ffffffffffffffff1667ffffffffffffffff1681526020019081526020016000206003019080519060200190610bfc929190611429565b508160400151600260008667ffffffffffffffff1667ffffffffffffffff168152602001908152602001600020600201819055508160800151600260008667ffffffffffffffff1667ffffffffffffffff1681526020019081526020016000206004019081610c6b919061290f565b508160200151600260008667ffffffffffffffff1667ffffffffffffffff168152602001908152602001600020600101819055508160000151600260008667ffffffffffffffff1667ffffffffffffffff168152602001908152602001600020600001819055508160800151600260008667ffffffffffffffff1667ffffffffffffffff1681526020019081526020016000206004019081610d0d919061290f565b5082600360008667ffffffffffffffff1667ffffffffffffffff16815260200190815260200160002060006101000a81548173ffffffffffffffffffffffffffffffffffffffff021916908373ffffffffffffffffffffffffffffffffffffffff160217905550600190509392505050565b610d87611219565b73ffffffffffffffffffffffffffffffffffffffff16610da5610412565b73ffffffffffffffffffffffffffffffffffffffff1614610dfb576040517f08c379a0000000000000000000000000000000000000000000000000000000008152600401610df290612a2d565b60405180910390fd5b565b60008060009054906101000a900473ffffffffffffffffffffffffffffffffffffffff169050816000806101000a81548173ffffffffffffffffffffffffffffffffffffffff021916908373ffffffffffffffffffffffffffffffffffffffff1602179055508173ffffffffffffffffffffffffffffffffffffffff168173ffffffffffffffffffffffffffffffffffffffff167f8be0079c531659141344cd1fd0a4f28419497f9722a3daafe3b4186f6b6457e060405160405180910390a35050565b6000610f54838373ffffffffffffffffffffffffffffffffffffffff16639f442afa6040518163ffffffff1660e01b8152600401602060405180830381865afa158015610f12573d6000803e3d6000fd5b505050506040513d601f19601f82011682018060405250810190610f369190612a62565b81518110610f4757610f46612a8f565b5b6020026020010151611221565b90508073ffffffffffffffffffffffffffffffffffffffff16610f75611219565b73ffffffffffffffffffffffffffffffffffffffff1614610fcb576040517f08c379a0000000000000000000000000000000000000000000000000000000008152600401610fc290612b30565b60405180910390fd5b50505050565b600167ffffffffffffffff168367ffffffffffffffff1614801561103b5750600060066000610ffe611219565b73ffffffffffffffffffffffffffffffffffffffff1673ffffffffffffffffffffffffffffffffffffffff16815260200190815260200160002054145b61107a576040517f08c379a000000000000000000000000000000000000000000000000000000000815260040161107190612bc2565b60405180910390fd5b6000828273ffffffffffffffffffffffffffffffffffffffff16639f442afa6040518163ffffffff1660e01b8152600401602060405180830381865afa1580156110c8573d6000803e3d6000fd5b505050506040513d601f19601f820116820180604052508101906110ec9190612a62565b815181106110fd576110fc612a8f565b5b60200260200101519050600073ffffffffffffffffffffffffffffffffffffffff166005600083815260200190815260200160002060009054906101000a900473ffffffffffffffffffffffffffffffffffffffff1673ffffffffffffffffffffffffffffffffffffffff160361121357806006600061117b611219565b73ffffffffffffffffffffffffffffffffffffffff1673ffffffffffffffffffffffffffffffffffffffff168152602001908152602001600020819055506111c1611219565b6005600083815260200190815260200160002060006101000a81548173ffffffffffffffffffffffffffffffffffffffff021916908373ffffffffffffffffffffffffffffffffffffffff1602179055505b50505050565b600033905090565b600061123c61123761123284611243565b61138f565b6113ec565b9050919050565b600081905060087eff00ff00ff00ff00ff00ff00ff00ff00ff00ff00ff00ff00ff00ff00ff00ff8216901b60087fff00ff00ff00ff00ff00ff00ff00ff00ff00ff00ff00ff00ff00ff00ff00ff008316901c17905060107dffff0000ffff0000ffff0000ffff0000ffff0000ffff0000ffff0000ffff8216901b60107fffff0000ffff0000ffff0000ffff0000ffff0000ffff0000ffff0000ffff00008316901c17905060207bffffffff00000000ffffffff00000000ffffffff00000000ffffffff8216901b60207fffffffff00000000ffffffff00000000ffffffff00000000ffffffff000000008316901c179050604077ffffffffffffffff0000000000000000ffffffffffffffff8216901b60407fffffffffffffffff0000000000000000ffffffffffffffff00000000000000008316901c179050608081901b608082901c179050919050565b6060602067ffffffffffffffff8111156113ac576113ab611931565b5b6040519080825280601f01601f1916602001820160405280156113de5781602001600182028036833780820191505090505b509050816020820152919050565b600060148201519050919050565b6040518060a0016040528060008152602001600081526020016000815260200160608152602001606081525090565b828054828255906000526020600020908101928215611465579160200282015b82811115611464578251825591602001919060010190611449565b5b5090506114729190611476565b5090565b5b8082111561148f576000816000905550600101611477565b5090565b6000604051905090565b600080fd5b600080fd5b600073ffffffffffffffffffffffffffffffffffffffff82169050919050565b60006114d2826114a7565b9050919050565b6114e2816114c7565b81146114ed57600080fd5b50565b6000813590506114ff816114d9565b92915050565b60006020828403121561151b5761151a61149d565b5b6000611529848285016114f0565b91505092915050565b6000819050919050565b61154581611532565b82525050565b6000602082019050611560600083018461153c565b92915050565b600081519050919050565b600082825260208201905092915050565b6000819050602082019050919050565b600067ffffffffffffffff82169050919050565b6115af81611592565b82525050565b60006115c183836115a6565b60208301905092915050565b6000602082019050919050565b60006115e582611566565b6115ef8185611571565b93506115fa83611582565b8060005b8381101561162b57815161161288826115b5565b975061161d836115cd565b9250506001810190506115fe565b5085935050505092915050565b6000602082019050818103600083015261165281846115da565b905092915050565b61166381611592565b82525050565b600060208201905061167e600083018461165a565b92915050565b61168d81611532565b811461169857600080fd5b50565b6000813590506116aa81611684565b92915050565b6000602082840312156116c6576116c561149d565b5b60006116d48482850161169b565b91505092915050565b6116e6816114c7565b82525050565b600060208201905061170160008301846116dd565b92915050565b61171081611592565b811461171b57600080fd5b50565b60008135905061172d81611707565b92915050565b6000602082840312156117495761174861149d565b5b60006117578482850161171e565b91505092915050565b600081519050919050565b600082825260208201905092915050565b60005b8381101561179a57808201518184015260208101905061177f565b60008484015250505050565b6000601f19601f8301169050919050565b60006117c282611760565b6117cc818561176b565b93506117dc81856020860161177c565b6117e5816117a6565b840191505092915050565b6000608082019050611805600083018761153c565b611812602083018661153c565b61181f604083018561153c565b818103606083015261183181846117b7565b905095945050505050565b6000819050919050565b600061186161185c611857846114a7565b61183c565b6114a7565b9050919050565b600061187382611846565b9050919050565b600061188582611868565b9050919050565b6118958161187a565b82525050565b60006020820190506118b0600083018461188c565b92915050565b600080604083850312156118cd576118cc61149d565b5b60006118db858286016114f0565b92505060206118ec8582860161171e565b9150509250929050565b60008115159050919050565b61190b816118f6565b82525050565b60006020820190506119266000830184611902565b92915050565b600080fd5b7f4e487b7100000000000000000000000000000000000000000000000000000000600052604160045260246000fd5b611969826117a6565b810181811067ffffffffffffffff8211171561198857611987611931565b5b80604052505050565b600061199b611493565b90506119a78282611960565b919050565b600067ffffffffffffffff8211156119c7576119c6611931565b5b602082029050602081019050919050565b600080fd5b60006119f06119eb846119ac565b611991565b90508083825260208201905060208402830185811115611a1357611a126119d8565b5b835b81811015611a3c5780611a28888261169b565b845260208401935050602081019050611a15565b5050509392505050565b600082601f830112611a5b57611a5a61192c565b5b8135611a6b8482602086016119dd565b91505092915050565b600067ffffffffffffffff821115611a8f57611a8e611931565b5b602082029050919050565b6000611aad611aa884611a74565b611991565b90508060208402830185811115611ac757611ac66119d8565b5b835b81811015611af05780611adc888261169b565b845260208401935050602081019050611ac9565b5050509392505050565b600082601f830112611b0f57611b0e61192c565b5b6002611b1c848285611a9a565b91505092915050565b600067ffffffffffffffff821115611b4057611b3f611931565b5b602082029050919050565b6000611b5e611b5984611b25565b611991565b90508060408402830185811115611b7857611b776119d8565b5b835b81811015611ba15780611b8d8882611afa565b845260208401935050604081019050611b7a565b5050509392505050565b600082601f830112611bc057611bbf61192c565b5b6002611bcd848285611b4b565b91505092915050565b60008060008060006101408688031215611bf357611bf261149d565b5b6000611c018882890161171e565b955050602086013567ffffffffffffffff811115611c2257611c216114a2565b5b611c2e88828901611a46565b9450506040611c3f88828901611afa565b9350506080611c5088828901611bab565b925050610100611c6288828901611afa565b9150509295509295909350565b611c7881611532565b82525050565b600081519050919050565b600082825260208201905092915050565b6000819050602082019050919050565b6000611cb68383611c6f565b60208301905092915050565b6000602082019050919050565b6000611cda82611c7e565b611ce48185611c89565b9350611cef83611c9a565b8060005b83811015611d20578151611d078882611caa565b9750611d1283611cc2565b925050600181019050611cf3565b5085935050505092915050565b600082825260208201905092915050565b6000611d4982611760565b611d538185611d2d565b9350611d6381856020860161177c565b611d6c816117a6565b840191505092915050565b600060a083016000830151611d8f6000860182611c6f565b506020830151611da26020860182611c6f565b506040830151611db56040860182611c6f565b5060608301518482036060860152611dcd8282611ccf565b91505060808301518482036080860152611de78282611d3e565b9150508091505092915050565b60006020820190508181036000830152611e0e8184611d77565b905092915050565b6000611e21826114c7565b9050919050565b611e3181611e16565b8114611e3c57600080fd5b50565b600081359050611e4e81611e28565b92915050565b600080fd5b600080fd5b600080fd5b600067ffffffffffffffff821115611e7e57611e7d611931565b5b611e87826117a6565b9050602081019050919050565b82818337600083830152505050565b6000611eb6611eb184611e63565b611991565b905082815260208101848484011115611ed257611ed1611e5e565b5b611edd848285611e94565b509392505050565b600082601f830112611efa57611ef961192c565b5b8135611f0a848260208601611ea3565b91505092915050565b600060a08284031215611f2957611f28611e54565b5b611f3360a0611991565b90506000611f438482850161169b565b6000830152506020611f578482850161169b565b6020830152506040611f6b8482850161169b565b604083015250606082013567ffffffffffffffff811115611f8f57611f8e611e59565b5b611f9b84828501611a46565b606083015250608082013567ffffffffffffffff811115611fbf57611fbe611e59565b5b611fcb84828501611ee5565b60808301525092915050565b600080600060608486031215611ff057611fef61149d565b5b6000611ffe8682870161171e565b935050602061200f86828701611e3f565b925050604084013567ffffffffffffffff8111156120305761202f6114a2565b5b61203c86828701611f13565b9150509250925092565b7f4e487b7100000000000000000000000000000000000000000000000000000000600052602260045260246000fd5b6000600282049050600182168061208d57607f821691505b6020821081036120a05761209f612046565b5b50919050565b7f76616c696461746f72206973206e6f742073657420666f72207468697320726560008201527f7175657374206964000000000000000000000000000000000000000000000000602082015250565b600061210260288361176b565b915061210d826120a6565b604082019050919050565b60006020820190508181036000830152612131816120f5565b9050919050565b7f7175657279206973206e6f742073657420666f7220746869732072657175657360008201527f7420696400000000000000000000000000000000000000000000000000000000602082015250565b600061219460248361176b565b915061219f82612138565b604082019050919050565b600060208201905081810360008301526121c381612187565b9050919050565b600082825260208201905092915050565b60006121e682611c7e565b6121f081856121ca565b93506121fb83611c9a565b8060005b8381101561222c5781516122138882611caa565b975061221e83611cc2565b9250506001810190506121ff565b5085935050505092915050565b600060029050919050565b600081905092915050565b6000819050919050565b6000602082019050919050565b61226f81612239565b6122798184612244565b92506122848261224f565b8060005b838110156122b557815161229c8782611caa565b96506122a783612259565b925050600181019050612288565b505050505050565b600060029050919050565b600081905092915050565b6000819050919050565b600081905092915050565b6122f181612239565b6122fb81846122dd565b92506123068261224f565b8060005b8381101561233757815161231e8782611caa565b965061232983612259565b92505060018101905061230a565b505050505050565b600061234b83836122e8565b60408301905092915050565b6000602082019050919050565b61236d816122bd565b61237781846122c8565b9250612382826122d3565b8060005b838110156123b357815161239a878261233f565b96506123a583612357565b925050600181019050612386565b505050505050565b60008160001c9050919050565b6000819050919050565b60006123e56123e0836123bb565b6123c8565b9050919050565b600081549050919050565b60008190508160005260206000209050919050565b600061241882546123d2565b9050919050565b6000600182019050919050565b6000612437826123ec565b6124418185611c89565b935061244c836123f7565b8060005b83811015612484576124618261240c565b61246b8882611caa565b97506124768361241f565b925050600181019050612450565b5085935050505092915050565b60008190508160005260206000209050919050565b600081546124b381612075565b6124bd8186611d2d565b945060018216600081146124d857600181146124ee57612521565b60ff198316865281151560200286019350612521565b6124f785612491565b60005b83811015612519578154818901526001820191506020810190506124fa565b808801955050505b50505092915050565b600060a083016000808401549050612541816123d2565b61254e6000870182611c6f565b506001840154905061255f816123d2565b61256c6020870182611c6f565b506002840154905061257d816123d2565b61258a6040870182611c6f565b506003840185830360608701526125a1838261242c565b9250506004840185830360808701526125ba83826124a6565b925050819250505092915050565b60006101408201905081810360008301526125e381886121db565b90506125f26020830187612266565b6125ff6060830186612364565b61260c60e0830185612266565b81810361012083015261261f818461252a565b90509695505050505050565b612634816118f6565b811461263f57600080fd5b50565b6000815190506126518161262b565b92915050565b60006020828403121561266d5761266c61149d565b5b600061267b84828501612642565b91505092915050565b7f70726f6f6620726573706f6e7365206973206e6f742076616c69640000000000600082015250565b60006126ba601b8361176b565b91506126c582612684565b602082019050919050565b600060208201905081810360008301526126e9816126ad565b9050919050565b7f4f776e61626c653a206e6577206f776e657220697320746865207a65726f206160008201527f6464726573730000000000000000000000000000000000000000000000000000602082015250565b600061274c60268361176b565b9150612757826126f0565b604082019050919050565b6000602082019050818103600083015261277b8161273f565b9050919050565b60006020601f8301049050919050565b600082821b905092915050565b6000600883026127cf7fffffffffffffffffffffffffffffffffffffffffffffffffffffffffffffffff82612792565b6127d98683612792565b95508019841693508086168417925050509392505050565b600061280c61280761280284611532565b61183c565b611532565b9050919050565b6000819050919050565b612826836127f1565b61283a61283282612813565b84845461279f565b825550505050565b600090565b61284f612842565b61285a81848461281d565b505050565b5b8181101561287e57612873600082612847565b600181019050612860565b5050565b601f8211156128c35761289481612491565b61289d84612782565b810160208510156128ac578190505b6128c06128b885612782565b83018261285f565b50505b505050565b600082821c905092915050565b60006128e6600019846008026128c8565b1980831691505092915050565b60006128ff83836128d5565b9150826002028217905092915050565b61291882611760565b67ffffffffffffffff81111561293157612930611931565b5b61293b8254612075565b612946828285612882565b600060209050601f8311600181146129795760008415612967578287015190505b61297185826128f3565b8655506129d9565b601f19841661298786612491565b60005b828110156129af5784890151825560018201915060208501945060208101905061298a565b868310156129cc57848901516129c8601f8916826128d5565b8355505b6001600288020188555050505b505050505050565b7f4f776e61626c653a2063616c6c6572206973206e6f7420746865206f776e6572600082015250565b6000612a1760208361176b565b9150612a22826129e1565b602082019050919050565b60006020820190508181036000830152612a4681612a0a565b9050919050565b600081519050612a5c81611684565b92915050565b600060208284031215612a7857612a7761149d565b5b6000612a8684828501612a4d565b91505092915050565b7f4e487b7100000000000000000000000000000000000000000000000000000000600052603260045260246000fd5b7f6164647265737320696e2070726f6f66206973206e6f7420612073656e64657260008201527f2061646472657373000000000000000000000000000000000000000000000000602082015250565b6000612b1a60288361176b565b9150612b2582612abe565b604082019050919050565b60006020820190508181036000830152612b4981612b0d565b9050919050565b7f70726f6f662063616e206e6f74206265207375626d6974746564206d6f72652060008201527f7468616e206f6e63650000000000000000000000000000000000000000000000602082015250565b6000612bac60298361176b565b9150612bb782612b50565b604082019050919050565b60006020820190508181036000830152612bdb81612b9f565b905091905056fea264697066735822122064332d2fec8daef139e1a70508ed16a3010c6e4530a74009ad0aeea3ed990fa764736f6c63430008110033","opcodes":"PUSH1 0x80 PUSH1 0x40 MSTORE CALLVALUE DUP1 ISZERO PUSH3 0x11 JUMPI PUSH1 0x0 DUP1 REVERT JUMPDEST POP PUSH3 0x32 PUSH3 0x26 PUSH3 0x38 PUSH1 0x20 SHL PUSH1 0x20 SHR JUMP JUMPDEST PUSH3 0x40 PUSH1 0x20 SHL PUSH1 0x20 SHR JUMP JUMPDEST PUSH3 0x104 JUMP JUMPDEST PUSH1 0x0 CALLER SWAP1 POP SWAP1 JUMP JUMPDEST PUSH1 0x0 DUP1 PUSH1 0x0 SWAP1 SLOAD SWAP1 PUSH2 0x100 EXP SWAP1 DIV PUSH20 0xFFFFFFFFFFFFFFFFFFFFFFFFFFFFFFFFFFFFFFFF AND SWAP1 POP DUP2 PUSH1 0x0 DUP1 PUSH2 0x100 EXP DUP2 SLOAD DUP2 PUSH20 0xFFFFFFFFFFFFFFFFFFFFFFFFFFFFFFFFFFFFFFFF MUL NOT AND SWAP1 DUP4 PUSH20 0xFFFFFFFFFFFFFFFFFFFFFFFFFFFFFFFFFFFFFFFF AND MUL OR SWAP1 SSTORE POP DUP2 PUSH20 0xFFFFFFFFFFFFFFFFFFFFFFFFFFFFFFFFFFFFFFFF AND DUP2 PUSH20 0xFFFFFFFFFFFFFFFFFFFFFFFFFFFFFFFFFFFFFFFF AND PUSH32 0x8BE0079C531659141344CD1FD0A4F28419497F9722A3DAAFE3B4186F6B6457E0 PUSH1 0x40 MLOAD PUSH1 0x40 MLOAD DUP1 SWAP2 SUB SWAP1 LOG3 POP POP JUMP JUMPDEST PUSH2 0x2C18 DUP1 PUSH3 0x114 PUSH1 0x0 CODECOPY PUSH1 0x0 RETURN INVALID PUSH1 0x80 PUSH1 0x40 MSTORE CALLVALUE DUP1 ISZERO PUSH2 0x10 JUMPI PUSH1 0x0 DUP1 REVERT JUMPDEST POP PUSH1 0x4 CALLDATASIZE LT PUSH2 0xEA JUMPI PUSH1 0x0 CALLDATALOAD PUSH1 0xE0 SHR DUP1 PUSH4 0xA8723114 GT PUSH2 0x8C JUMPI DUP1 PUSH4 0xC76D0845 GT PUSH2 0x66 JUMPI DUP1 PUSH4 0xC76D0845 EQ PUSH2 0x276 JUMPI DUP1 PUSH4 0xF1435326 EQ PUSH2 0x2A6 JUMPI DUP1 PUSH4 0xF2FDE38B EQ PUSH2 0x2D6 JUMPI DUP1 PUSH4 0xFEE207E6 EQ PUSH2 0x2F2 JUMPI PUSH2 0xEA JUMP JUMPDEST DUP1 PUSH4 0xA8723114 EQ PUSH2 0x1E6 JUMPI DUP1 PUSH4 0xB45C0FDF EQ PUSH2 0x216 JUMPI DUP1 PUSH4 0xB68967E2 EQ PUSH2 0x246 JUMPI PUSH2 0xEA JUMP JUMPDEST DUP1 PUSH4 0x715018A6 GT PUSH2 0xC8 JUMPI DUP1 PUSH4 0x715018A6 EQ PUSH2 0x15B JUMPI DUP1 PUSH4 0x8D94F0BB EQ PUSH2 0x165 JUMPI DUP1 PUSH4 0x8DA5CB5B EQ PUSH2 0x195 JUMPI DUP1 PUSH4 0x96BF4741 EQ PUSH2 0x1B3 JUMPI PUSH2 0xEA JUMP JUMPDEST DUP1 PUSH4 0xDDCFE8E EQ PUSH2 0xEF JUMPI DUP1 PUSH4 0x37BA9523 EQ PUSH2 0x11F JUMPI DUP1 PUSH4 0x63EC508F EQ PUSH2 0x13D JUMPI JUMPDEST PUSH1 0x0 DUP1 REVERT JUMPDEST PUSH2 0x109 PUSH1 0x4 DUP1 CALLDATASIZE SUB DUP2 ADD SWAP1 PUSH2 0x104 SWAP2 SWAP1 PUSH2 0x1505 JUMP JUMPDEST PUSH2 0x322 JUMP JUMPDEST PUSH1 0x40 MLOAD PUSH2 0x116 SWAP2 SWAP1 PUSH2 0x154B JUMP JUMPDEST PUSH1 0x40 MLOAD DUP1 SWAP2 SUB SWAP1 RETURN JUMPDEST PUSH2 0x127 PUSH2 0x33A JUMP JUMPDEST PUSH1 0x40 MLOAD PUSH2 0x134 SWAP2 SWAP1 PUSH2 0x1638 JUMP JUMPDEST PUSH1 0x40 MLOAD DUP1 SWAP2 SUB SWAP1 RETURN JUMPDEST PUSH2 0x145 PUSH2 0x3C6 JUMP JUMPDEST PUSH1 0x40 MLOAD PUSH2 0x152 SWAP2 SWAP1 PUSH2 0x1669 JUMP JUMPDEST PUSH1 0x40 MLOAD DUP1 SWAP2 SUB SWAP1 RETURN JUMPDEST PUSH2 0x163 PUSH2 0x3CB JUMP JUMPDEST STOP JUMPDEST PUSH2 0x17F PUSH1 0x4 DUP1 CALLDATASIZE SUB DUP2 ADD SWAP1 PUSH2 0x17A SWAP2 SWAP1 PUSH2 0x16B0 JUMP JUMPDEST PUSH2 0x3DF JUMP JUMPDEST PUSH1 0x40 MLOAD PUSH2 0x18C SWAP2 SWAP1 PUSH2 0x16EC JUMP JUMPDEST PUSH1 0x40 MLOAD DUP1 SWAP2 SUB SWAP1 RETURN JUMPDEST PUSH2 0x19D PUSH2 0x412 JUMP JUMPDEST PUSH1 0x40 MLOAD PUSH2 0x1AA SWAP2 SWAP1 PUSH2 0x16EC JUMP JUMPDEST PUSH1 0x40 MLOAD DUP1 SWAP2 SUB SWAP1 RETURN JUMPDEST PUSH2 0x1CD PUSH1 0x4 DUP1 CALLDATASIZE SUB DUP2 ADD SWAP1 PUSH2 0x1C8 SWAP2 SWAP1 PUSH2 0x1733 JUMP JUMPDEST PUSH2 0x43B JUMP JUMPDEST PUSH1 0x40 MLOAD PUSH2 0x1DD SWAP5 SWAP4 SWAP3 SWAP2 SWAP1 PUSH2 0x17F0 JUMP JUMPDEST PUSH1 0x40 MLOAD DUP1 SWAP2 SUB SWAP1 RETURN JUMPDEST PUSH2 0x200 PUSH1 0x4 DUP1 CALLDATASIZE SUB DUP2 ADD SWAP1 PUSH2 0x1FB SWAP2 SWAP1 PUSH2 0x1733 JUMP JUMPDEST PUSH2 0x4F3 JUMP JUMPDEST PUSH1 0x40 MLOAD PUSH2 0x20D SWAP2 SWAP1 PUSH2 0x189B JUMP JUMPDEST PUSH1 0x40 MLOAD DUP1 SWAP2 SUB SWAP1 RETURN JUMPDEST PUSH2 0x230 PUSH1 0x4 DUP1 CALLDATASIZE SUB DUP2 ADD SWAP1 PUSH2 0x22B SWAP2 SWAP1 PUSH2 0x18B6 JUMP JUMPDEST PUSH2 0x526 JUMP JUMPDEST PUSH1 0x40 MLOAD PUSH2 0x23D SWAP2 SWAP1 PUSH2 0x1911 JUMP JUMPDEST PUSH1 0x40 MLOAD DUP1 SWAP2 SUB SWAP1 RETURN JUMPDEST PUSH2 0x260 PUSH1 0x4 DUP1 CALLDATASIZE SUB DUP2 ADD SWAP1 PUSH2 0x25B SWAP2 SWAP1 PUSH2 0x1BD6 JUMP JUMPDEST PUSH2 0x555 JUMP JUMPDEST PUSH1 0x40 MLOAD PUSH2 0x26D SWAP2 SWAP1 PUSH2 0x1911 JUMP JUMPDEST PUSH1 0x40 MLOAD DUP1 SWAP2 SUB SWAP1 RETURN JUMPDEST PUSH2 0x290 PUSH1 0x4 DUP1 CALLDATASIZE SUB DUP2 ADD SWAP1 PUSH2 0x28B SWAP2 SWAP1 PUSH2 0x1733 JUMP JUMPDEST PUSH2 0x8D4 JUMP JUMPDEST PUSH1 0x40 MLOAD PUSH2 0x29D SWAP2 SWAP1 PUSH2 0x1DF4 JUMP JUMPDEST PUSH1 0x40 MLOAD DUP1 SWAP2 SUB SWAP1 RETURN JUMPDEST PUSH2 0x2C0 PUSH1 0x4 DUP1 CALLDATASIZE SUB DUP2 ADD SWAP1 PUSH2 0x2BB SWAP2 SWAP1 PUSH2 0x16B0 JUMP JUMPDEST PUSH2 0xA1D JUMP JUMPDEST PUSH1 0x40 MLOAD PUSH2 0x2CD SWAP2 SWAP1 PUSH2 0x1669 JUMP JUMPDEST PUSH1 0x40 MLOAD DUP1 SWAP2 SUB SWAP1 RETURN JUMPDEST PUSH2 0x2F0 PUSH1 0x4 DUP1 CALLDATASIZE SUB DUP2 ADD SWAP1 PUSH2 0x2EB SWAP2 SWAP1 PUSH2 0x1505 JUMP JUMPDEST PUSH2 0xA5B JUMP JUMPDEST STOP JUMPDEST PUSH2 0x30C PUSH1 0x4 DUP1 CALLDATASIZE SUB DUP2 ADD SWAP1 PUSH2 0x307 SWAP2 SWAP1 PUSH2 0x1FD7 JUMP JUMPDEST PUSH2 0xADE JUMP JUMPDEST PUSH1 0x40 MLOAD PUSH2 0x319 SWAP2 SWAP1 PUSH2 0x1911 JUMP JUMPDEST PUSH1 0x40 MLOAD DUP1 SWAP2 SUB SWAP1 RETURN JUMPDEST PUSH1 0x6 PUSH1 0x20 MSTORE DUP1 PUSH1 0x0 MSTORE PUSH1 0x40 PUSH1 0x0 KECCAK256 PUSH1 0x0 SWAP2 POP SWAP1 POP SLOAD DUP2 JUMP JUMPDEST PUSH1 0x60 PUSH1 0x4 DUP1 SLOAD DUP1 PUSH1 0x20 MUL PUSH1 0x20 ADD PUSH1 0x40 MLOAD SWAP1 DUP2 ADD PUSH1 0x40 MSTORE DUP1 SWAP3 SWAP2 SWAP1 DUP2 DUP2 MSTORE PUSH1 0x20 ADD DUP3 DUP1 SLOAD DUP1 ISZERO PUSH2 0x3BC JUMPI PUSH1 0x20 MUL DUP3 ADD SWAP2 SWAP1 PUSH1 0x0 MSTORE PUSH1 0x20 PUSH1 0x0 KECCAK256 SWAP1 PUSH1 0x0 SWAP1 JUMPDEST DUP3 DUP3 SWAP1 SLOAD SWAP1 PUSH2 0x100 EXP SWAP1 DIV PUSH8 0xFFFFFFFFFFFFFFFF AND PUSH8 0xFFFFFFFFFFFFFFFF AND DUP2 MSTORE PUSH1 0x20 ADD SWAP1 PUSH1 0x8 ADD SWAP1 PUSH1 0x20 DUP3 PUSH1 0x7 ADD DIV SWAP3 DUP4 ADD SWAP3 PUSH1 0x1 SUB DUP3 MUL SWAP2 POP DUP1 DUP5 GT PUSH2 0x377 JUMPI SWAP1 POP JUMPDEST POP POP POP POP POP SWAP1 POP SWAP1 JUMP JUMPDEST PUSH1 0x1 DUP2 JUMP JUMPDEST PUSH2 0x3D3 PUSH2 0xD7F JUMP JUMPDEST PUSH2 0x3DD PUSH1 0x0 PUSH2 0xDFD JUMP JUMPDEST JUMP JUMPDEST PUSH1 0x5 PUSH1 0x20 MSTORE DUP1 PUSH1 0x0 MSTORE PUSH1 0x40 PUSH1 0x0 KECCAK256 PUSH1 0x0 SWAP2 POP SLOAD SWAP1 PUSH2 0x100 EXP SWAP1 DIV PUSH20 0xFFFFFFFFFFFFFFFFFFFFFFFFFFFFFFFFFFFFFFFF AND DUP2 JUMP JUMPDEST PUSH1 0x0 DUP1 PUSH1 0x0 SWAP1 SLOAD SWAP1 PUSH2 0x100 EXP SWAP1 DIV PUSH20 0xFFFFFFFFFFFFFFFFFFFFFFFFFFFFFFFFFFFFFFFF AND SWAP1 POP SWAP1 JUMP JUMPDEST PUSH1 0x2 PUSH1 0x20 MSTORE DUP1 PUSH1 0x0 MSTORE PUSH1 0x40 PUSH1 0x0 KECCAK256 PUSH1 0x0 SWAP2 POP SWAP1 POP DUP1 PUSH1 0x0 ADD SLOAD SWAP1 DUP1 PUSH1 0x1 ADD SLOAD SWAP1 DUP1 PUSH1 0x2 ADD SLOAD SWAP1 DUP1 PUSH1 0x4 ADD DUP1 SLOAD PUSH2 0x470 SWAP1 PUSH2 0x2075 JUMP JUMPDEST DUP1 PUSH1 0x1F ADD PUSH1 0x20 DUP1 SWAP2 DIV MUL PUSH1 0x20 ADD PUSH1 0x40 MLOAD SWAP1 DUP2 ADD PUSH1 0x40 MSTORE DUP1 SWAP3 SWAP2 SWAP1 DUP2 DUP2 MSTORE PUSH1 0x20 ADD DUP3 DUP1 SLOAD PUSH2 0x49C SWAP1 PUSH2 0x2075 JUMP JUMPDEST DUP1 ISZERO PUSH2 0x4E9 JUMPI DUP1 PUSH1 0x1F LT PUSH2 0x4BE JUMPI PUSH2 0x100 DUP1 DUP4 SLOAD DIV MUL DUP4 MSTORE SWAP2 PUSH1 0x20 ADD SWAP2 PUSH2 0x4E9 JUMP JUMPDEST DUP3 ADD SWAP2 SWAP1 PUSH1 0x0 MSTORE PUSH1 0x20 PUSH1 0x0 KECCAK256 SWAP1 JUMPDEST DUP2 SLOAD DUP2 MSTORE SWAP1 PUSH1 0x1 ADD SWAP1 PUSH1 0x20 ADD DUP1 DUP4 GT PUSH2 0x4CC JUMPI DUP3 SWAP1 SUB PUSH1 0x1F AND DUP3 ADD SWAP2 JUMPDEST POP POP POP POP POP SWAP1 POP DUP5 JUMP JUMPDEST PUSH1 0x3 PUSH1 0x20 MSTORE DUP1 PUSH1 0x0 MSTORE PUSH1 0x40 PUSH1 0x0 KECCAK256 PUSH1 0x0 SWAP2 POP SLOAD SWAP1 PUSH2 0x100 EXP SWAP1 DIV PUSH20 0xFFFFFFFFFFFFFFFFFFFFFFFFFFFFFFFFFFFFFFFF AND DUP2 JUMP JUMPDEST PUSH1 0x1 PUSH1 0x20 MSTORE DUP2 PUSH1 0x0 MSTORE PUSH1 0x40 PUSH1 0x0 KECCAK256 PUSH1 0x20 MSTORE DUP1 PUSH1 0x0 MSTORE PUSH1 0x40 PUSH1 0x0 KECCAK256 PUSH1 0x0 SWAP2 POP SWAP2 POP SWAP1 SLOAD SWAP1 PUSH2 0x100 EXP SWAP1 DIV PUSH1 0xFF AND DUP2 JUMP JUMPDEST PUSH1 0x0 DUP1 PUSH20 0xFFFFFFFFFFFFFFFFFFFFFFFFFFFFFFFFFFFFFFFF AND PUSH1 0x3 PUSH1 0x0 DUP9 PUSH8 0xFFFFFFFFFFFFFFFF AND PUSH8 0xFFFFFFFFFFFFFFFF AND DUP2 MSTORE PUSH1 0x20 ADD SWAP1 DUP2 MSTORE PUSH1 0x20 ADD PUSH1 0x0 KECCAK256 PUSH1 0x0 SWAP1 SLOAD SWAP1 PUSH2 0x100 EXP SWAP1 DIV PUSH20 0xFFFFFFFFFFFFFFFFFFFFFFFFFFFFFFFFFFFFFFFF AND PUSH20 0xFFFFFFFFFFFFFFFFFFFFFFFFFFFFFFFFFFFFFFFF AND SUB PUSH2 0x60C JUMPI PUSH1 0x40 MLOAD PUSH32 0x8C379A000000000000000000000000000000000000000000000000000000000 DUP2 MSTORE PUSH1 0x4 ADD PUSH2 0x603 SWAP1 PUSH2 0x2118 JUMP JUMPDEST PUSH1 0x40 MLOAD DUP1 SWAP2 SUB SWAP1 REVERT JUMPDEST PUSH1 0x0 PUSH1 0x2 PUSH1 0x0 DUP9 PUSH8 0xFFFFFFFFFFFFFFFF AND PUSH8 0xFFFFFFFFFFFFFFFF AND DUP2 MSTORE PUSH1 0x20 ADD SWAP1 DUP2 MSTORE PUSH1 0x20 ADD PUSH1 0x0 KECCAK256 PUSH1 0x0 ADD SLOAD SUB PUSH2 0x679 JUMPI PUSH1 0x40 MLOAD PUSH32 0x8C379A000000000000000000000000000000000000000000000000000000000 DUP2 MSTORE PUSH1 0x4 ADD PUSH2 0x670 SWAP1 PUSH2 0x21AA JUMP JUMPDEST PUSH1 0x40 MLOAD DUP1 SWAP2 SUB SWAP1 REVERT JUMPDEST PUSH2 0x6CB DUP7 DUP7 PUSH1 0x3 PUSH1 0x0 DUP11 PUSH8 0xFFFFFFFFFFFFFFFF AND PUSH8 0xFFFFFFFFFFFFFFFF AND DUP2 MSTORE PUSH1 0x20 ADD SWAP1 DUP2 MSTORE PUSH1 0x20 ADD PUSH1 0x0 KECCAK256 PUSH1 0x0 SWAP1 SLOAD SWAP1 PUSH2 0x100 EXP SWAP1 DIV PUSH20 0xFFFFFFFFFFFFFFFFFFFFFFFFFFFFFFFFFFFFFFFF AND PUSH2 0xEC1 JUMP JUMPDEST PUSH1 0x3 PUSH1 0x0 DUP8 PUSH8 0xFFFFFFFFFFFFFFFF AND PUSH8 0xFFFFFFFFFFFFFFFF AND DUP2 MSTORE PUSH1 0x20 ADD SWAP1 DUP2 MSTORE PUSH1 0x20 ADD PUSH1 0x0 KECCAK256 PUSH1 0x0 SWAP1 SLOAD SWAP1 PUSH2 0x100 EXP SWAP1 DIV PUSH20 0xFFFFFFFFFFFFFFFFFFFFFFFFFFFFFFFFFFFFFFFF AND PUSH20 0xFFFFFFFFFFFFFFFFFFFFFFFFFFFFFFFFFFFFFFFF AND PUSH4 0x67E1D504 DUP7 DUP7 DUP7 DUP7 PUSH1 0x2 PUSH1 0x0 DUP14 PUSH8 0xFFFFFFFFFFFFFFFF AND PUSH8 0xFFFFFFFFFFFFFFFF AND DUP2 MSTORE PUSH1 0x20 ADD SWAP1 DUP2 MSTORE PUSH1 0x20 ADD PUSH1 0x0 KECCAK256 PUSH1 0x40 MLOAD DUP7 PUSH4 0xFFFFFFFF AND PUSH1 0xE0 SHL DUP2 MSTORE PUSH1 0x4 ADD PUSH2 0x779 SWAP6 SWAP5 SWAP4 SWAP3 SWAP2 SWAP1 PUSH2 0x25C8 JUMP JUMPDEST PUSH1 0x20 PUSH1 0x40 MLOAD DUP1 DUP4 SUB DUP2 DUP7 GAS STATICCALL ISZERO DUP1 ISZERO PUSH2 0x796 JUMPI RETURNDATASIZE PUSH1 0x0 DUP1 RETURNDATACOPY RETURNDATASIZE PUSH1 0x0 REVERT JUMPDEST POP POP POP POP PUSH1 0x40 MLOAD RETURNDATASIZE PUSH1 0x1F NOT PUSH1 0x1F DUP3 ADD AND DUP3 ADD DUP1 PUSH1 0x40 MSTORE POP DUP2 ADD SWAP1 PUSH2 0x7BA SWAP2 SWAP1 PUSH2 0x2657 JUMP JUMPDEST PUSH2 0x7F9 JUMPI PUSH1 0x40 MLOAD PUSH32 0x8C379A000000000000000000000000000000000000000000000000000000000 DUP2 MSTORE PUSH1 0x4 ADD PUSH2 0x7F0 SWAP1 PUSH2 0x26D0 JUMP JUMPDEST PUSH1 0x40 MLOAD DUP1 SWAP2 SUB SWAP1 REVERT JUMPDEST PUSH1 0x1 DUP1 PUSH1 0x0 CALLER PUSH20 0xFFFFFFFFFFFFFFFFFFFFFFFFFFFFFFFFFFFFFFFF AND PUSH20 0xFFFFFFFFFFFFFFFFFFFFFFFFFFFFFFFFFFFFFFFF AND DUP2 MSTORE PUSH1 0x20 ADD SWAP1 DUP2 MSTORE PUSH1 0x20 ADD PUSH1 0x0 KECCAK256 PUSH1 0x0 DUP9 PUSH8 0xFFFFFFFFFFFFFFFF AND PUSH8 0xFFFFFFFFFFFFFFFF AND DUP2 MSTORE PUSH1 0x20 ADD SWAP1 DUP2 MSTORE PUSH1 0x20 ADD PUSH1 0x0 KECCAK256 PUSH1 0x0 PUSH2 0x100 EXP DUP2 SLOAD DUP2 PUSH1 0xFF MUL NOT AND SWAP1 DUP4 ISZERO ISZERO MUL OR SWAP1 SSTORE POP PUSH2 0x8C7 DUP7 DUP7 PUSH1 0x3 PUSH1 0x0 DUP11 PUSH8 0xFFFFFFFFFFFFFFFF AND PUSH8 0xFFFFFFFFFFFFFFFF AND DUP2 MSTORE PUSH1 0x20 ADD SWAP1 DUP2 MSTORE PUSH1 0x20 ADD PUSH1 0x0 KECCAK256 PUSH1 0x0 SWAP1 SLOAD SWAP1 PUSH2 0x100 EXP SWAP1 DIV PUSH20 0xFFFFFFFFFFFFFFFFFFFFFFFFFFFFFFFFFFFFFFFF AND PUSH2 0xFD1 JUMP JUMPDEST PUSH1 0x1 SWAP1 POP SWAP6 SWAP5 POP POP POP POP POP JUMP JUMPDEST PUSH2 0x8DC PUSH2 0x13FA JUMP JUMPDEST PUSH1 0x2 PUSH1 0x0 DUP4 PUSH8 0xFFFFFFFFFFFFFFFF AND PUSH8 0xFFFFFFFFFFFFFFFF AND DUP2 MSTORE PUSH1 0x20 ADD SWAP1 DUP2 MSTORE PUSH1 0x20 ADD PUSH1 0x0 KECCAK256 PUSH1 0x40 MLOAD DUP1 PUSH1 0xA0 ADD PUSH1 0x40 MSTORE SWAP1 DUP2 PUSH1 0x0 DUP3 ADD SLOAD DUP2 MSTORE PUSH1 0x20 ADD PUSH1 0x1 DUP3 ADD SLOAD DUP2 MSTORE PUSH1 0x20 ADD PUSH1 0x2 DUP3 ADD SLOAD DUP2 MSTORE PUSH1 0x20 ADD PUSH1 0x3 DUP3 ADD DUP1 SLOAD DUP1 PUSH1 0x20 MUL PUSH1 0x20 ADD PUSH1 0x40 MLOAD SWAP1 DUP2 ADD PUSH1 0x40 MSTORE DUP1 SWAP3 SWAP2 SWAP1 DUP2 DUP2 MSTORE PUSH1 0x20 ADD DUP3 DUP1 SLOAD DUP1 ISZERO PUSH2 0x97B JUMPI PUSH1 0x20 MUL DUP3 ADD SWAP2 SWAP1 PUSH1 0x0 MSTORE PUSH1 0x20 PUSH1 0x0 KECCAK256 SWAP1 JUMPDEST DUP2 SLOAD DUP2 MSTORE PUSH1 0x20 ADD SWAP1 PUSH1 0x1 ADD SWAP1 DUP1 DUP4 GT PUSH2 0x967 JUMPI JUMPDEST POP POP POP POP POP DUP2 MSTORE PUSH1 0x20 ADD PUSH1 0x4 DUP3 ADD DUP1 SLOAD PUSH2 0x994 SWAP1 PUSH2 0x2075 JUMP JUMPDEST DUP1 PUSH1 0x1F ADD PUSH1 0x20 DUP1 SWAP2 DIV MUL PUSH1 0x20 ADD PUSH1 0x40 MLOAD SWAP1 DUP2 ADD PUSH1 0x40 MSTORE DUP1 SWAP3 SWAP2 SWAP1 DUP2 DUP2 MSTORE PUSH1 0x20 ADD DUP3 DUP1 SLOAD PUSH2 0x9C0 SWAP1 PUSH2 0x2075 JUMP JUMPDEST DUP1 ISZERO PUSH2 0xA0D JUMPI DUP1 PUSH1 0x1F LT PUSH2 0x9E2 JUMPI PUSH2 0x100 DUP1 DUP4 SLOAD DIV MUL DUP4 MSTORE SWAP2 PUSH1 0x20 ADD SWAP2 PUSH2 0xA0D JUMP JUMPDEST DUP3 ADD SWAP2 SWAP1 PUSH1 0x0 MSTORE PUSH1 0x20 PUSH1 0x0 KECCAK256 SWAP1 JUMPDEST DUP2 SLOAD DUP2 MSTORE SWAP1 PUSH1 0x1 ADD SWAP1 PUSH1 0x20 ADD DUP1 DUP4 GT PUSH2 0x9F0 JUMPI DUP3 SWAP1 SUB PUSH1 0x1F AND DUP3 ADD SWAP2 JUMPDEST POP POP POP POP POP DUP2 MSTORE POP POP SWAP1 POP SWAP2 SWAP1 POP JUMP JUMPDEST PUSH1 0x4 DUP2 DUP2 SLOAD DUP2 LT PUSH2 0xA2D JUMPI PUSH1 0x0 DUP1 REVERT JUMPDEST SWAP1 PUSH1 0x0 MSTORE PUSH1 0x20 PUSH1 0x0 KECCAK256 SWAP1 PUSH1 0x4 SWAP2 DUP3 DUP3 DIV ADD SWAP2 SWAP1 MOD PUSH1 0x8 MUL SWAP2 POP SLOAD SWAP1 PUSH2 0x100 EXP SWAP1 DIV PUSH8 0xFFFFFFFFFFFFFFFF AND DUP2 JUMP JUMPDEST PUSH2 0xA63 PUSH2 0xD7F JUMP JUMPDEST PUSH1 0x0 PUSH20 0xFFFFFFFFFFFFFFFFFFFFFFFFFFFFFFFFFFFFFFFF AND DUP2 PUSH20 0xFFFFFFFFFFFFFFFFFFFFFFFFFFFFFFFFFFFFFFFF AND SUB PUSH2 0xAD2 JUMPI PUSH1 0x40 MLOAD PUSH32 0x8C379A000000000000000000000000000000000000000000000000000000000 DUP2 MSTORE PUSH1 0x4 ADD PUSH2 0xAC9 SWAP1 PUSH2 0x2762 JUMP JUMPDEST PUSH1 0x40 MLOAD DUP1 SWAP2 SUB SWAP1 REVERT JUMPDEST PUSH2 0xADB DUP2 PUSH2 0xDFD JUMP JUMPDEST POP JUMP JUMPDEST PUSH1 0x0 PUSH2 0xAE8 PUSH2 0xD7F JUMP JUMPDEST PUSH1 0x0 PUSH20 0xFFFFFFFFFFFFFFFFFFFFFFFFFFFFFFFFFFFFFFFF AND PUSH1 0x3 PUSH1 0x0 DUP7 PUSH8 0xFFFFFFFFFFFFFFFF AND PUSH8 0xFFFFFFFFFFFFFFFF AND DUP2 MSTORE PUSH1 0x20 ADD SWAP1 DUP2 MSTORE PUSH1 0x20 ADD PUSH1 0x0 KECCAK256 PUSH1 0x0 SWAP1 SLOAD SWAP1 PUSH2 0x100 EXP SWAP1 DIV PUSH20 0xFFFFFFFFFFFFFFFFFFFFFFFFFFFFFFFFFFFFFFFF AND PUSH20 0xFFFFFFFFFFFFFFFFFFFFFFFFFFFFFFFFFFFFFFFF AND SUB PUSH2 0xBBA JUMPI PUSH1 0x4 DUP5 SWAP1 DUP1 PUSH1 0x1 DUP2 SLOAD ADD DUP1 DUP3 SSTORE DUP1 SWAP2 POP POP PUSH1 0x1 SWAP1 SUB SWAP1 PUSH1 0x0 MSTORE PUSH1 0x20 PUSH1 0x0 KECCAK256 SWAP1 PUSH1 0x4 SWAP2 DUP3 DUP3 DIV ADD SWAP2 SWAP1 MOD PUSH1 0x8 MUL SWAP1 SWAP2 SWAP1 SWAP2 SWAP1 SWAP2 PUSH2 0x100 EXP DUP2 SLOAD DUP2 PUSH8 0xFFFFFFFFFFFFFFFF MUL NOT AND SWAP1 DUP4 PUSH8 0xFFFFFFFFFFFFFFFF AND MUL OR SWAP1 SSTORE POP JUMPDEST DUP2 PUSH1 0x60 ADD MLOAD PUSH1 0x2 PUSH1 0x0 DUP7 PUSH8 0xFFFFFFFFFFFFFFFF AND PUSH8 0xFFFFFFFFFFFFFFFF AND DUP2 MSTORE PUSH1 0x20 ADD SWAP1 DUP2 MSTORE PUSH1 0x20 ADD PUSH1 0x0 KECCAK256 PUSH1 0x3 ADD SWAP1 DUP1 MLOAD SWAP1 PUSH1 0x20 ADD SWAP1 PUSH2 0xBFC SWAP3 SWAP2 SWAP1 PUSH2 0x1429 JUMP JUMPDEST POP DUP2 PUSH1 0x40 ADD MLOAD PUSH1 0x2 PUSH1 0x0 DUP7 PUSH8 0xFFFFFFFFFFFFFFFF AND PUSH8 0xFFFFFFFFFFFFFFFF AND DUP2 MSTORE PUSH1 0x20 ADD SWAP1 DUP2 MSTORE PUSH1 0x20 ADD PUSH1 0x0 KECCAK256 PUSH1 0x2 ADD DUP2 SWAP1 SSTORE POP DUP2 PUSH1 0x80 ADD MLOAD PUSH1 0x2 PUSH1 0x0 DUP7 PUSH8 0xFFFFFFFFFFFFFFFF AND PUSH8 0xFFFFFFFFFFFFFFFF AND DUP2 MSTORE PUSH1 0x20 ADD SWAP1 DUP2 MSTORE PUSH1 0x20 ADD PUSH1 0x0 KECCAK256 PUSH1 0x4 ADD SWAP1 DUP2 PUSH2 0xC6B SWAP2 SWAP1 PUSH2 0x290F JUMP JUMPDEST POP DUP2 PUSH1 0x20 ADD MLOAD PUSH1 0x2 PUSH1 0x0 DUP7 PUSH8 0xFFFFFFFFFFFFFFFF AND PUSH8 0xFFFFFFFFFFFFFFFF AND DUP2 MSTORE PUSH1 0x20 ADD SWAP1 DUP2 MSTORE PUSH1 0x20 ADD PUSH1 0x0 KECCAK256 PUSH1 0x1 ADD DUP2 SWAP1 SSTORE POP DUP2 PUSH1 0x0 ADD MLOAD PUSH1 0x2 PUSH1 0x0 DUP7 PUSH8 0xFFFFFFFFFFFFFFFF AND PUSH8 0xFFFFFFFFFFFFFFFF AND DUP2 MSTORE PUSH1 0x20 ADD SWAP1 DUP2 MSTORE PUSH1 0x20 ADD PUSH1 0x0 KECCAK256 PUSH1 0x0 ADD DUP2 SWAP1 SSTORE POP DUP2 PUSH1 0x80 ADD MLOAD PUSH1 0x2 PUSH1 0x0 DUP7 PUSH8 0xFFFFFFFFFFFFFFFF AND PUSH8 0xFFFFFFFFFFFFFFFF AND DUP2 MSTORE PUSH1 0x20 ADD SWAP1 DUP2 MSTORE PUSH1 0x20 ADD PUSH1 0x0 KECCAK256 PUSH1 0x4 ADD SWAP1 DUP2 PUSH2 0xD0D SWAP2 SWAP1 PUSH2 0x290F JUMP JUMPDEST POP DUP3 PUSH1 0x3 PUSH1 0x0 DUP7 PUSH8 0xFFFFFFFFFFFFFFFF AND PUSH8 0xFFFFFFFFFFFFFFFF AND DUP2 MSTORE PUSH1 0x20 ADD SWAP1 DUP2 MSTORE PUSH1 0x20 ADD PUSH1 0x0 KECCAK256 PUSH1 0x0 PUSH2 0x100 EXP DUP2 SLOAD DUP2 PUSH20 0xFFFFFFFFFFFFFFFFFFFFFFFFFFFFFFFFFFFFFFFF MUL NOT AND SWAP1 DUP4 PUSH20 0xFFFFFFFFFFFFFFFFFFFFFFFFFFFFFFFFFFFFFFFF AND MUL OR SWAP1 SSTORE POP PUSH1 0x1 SWAP1 POP SWAP4 SWAP3 POP POP POP JUMP JUMPDEST PUSH2 0xD87 PUSH2 0x1219 JUMP JUMPDEST PUSH20 0xFFFFFFFFFFFFFFFFFFFFFFFFFFFFFFFFFFFFFFFF AND PUSH2 0xDA5 PUSH2 0x412 JUMP JUMPDEST PUSH20 0xFFFFFFFFFFFFFFFFFFFFFFFFFFFFFFFFFFFFFFFF AND EQ PUSH2 0xDFB JUMPI PUSH1 0x40 MLOAD PUSH32 0x8C379A000000000000000000000000000000000000000000000000000000000 DUP2 MSTORE PUSH1 0x4 ADD PUSH2 0xDF2 SWAP1 PUSH2 0x2A2D JUMP JUMPDEST PUSH1 0x40 MLOAD DUP1 SWAP2 SUB SWAP1 REVERT JUMPDEST JUMP JUMPDEST PUSH1 0x0 DUP1 PUSH1 0x0 SWAP1 SLOAD SWAP1 PUSH2 0x100 EXP SWAP1 DIV PUSH20 0xFFFFFFFFFFFFFFFFFFFFFFFFFFFFFFFFFFFFFFFF AND SWAP1 POP DUP2 PUSH1 0x0 DUP1 PUSH2 0x100 EXP DUP2 SLOAD DUP2 PUSH20 0xFFFFFFFFFFFFFFFFFFFFFFFFFFFFFFFFFFFFFFFF MUL NOT AND SWAP1 DUP4 PUSH20 0xFFFFFFFFFFFFFFFFFFFFFFFFFFFFFFFFFFFFFFFF AND MUL OR SWAP1 SSTORE POP DUP2 PUSH20 0xFFFFFFFFFFFFFFFFFFFFFFFFFFFFFFFFFFFFFFFF AND DUP2 PUSH20 0xFFFFFFFFFFFFFFFFFFFFFFFFFFFFFFFFFFFFFFFF AND PUSH32 0x8BE0079C531659141344CD1FD0A4F28419497F9722A3DAAFE3B4186F6B6457E0 PUSH1 0x40 MLOAD PUSH1 0x40 MLOAD DUP1 SWAP2 SUB SWAP1 LOG3 POP POP JUMP JUMPDEST PUSH1 0x0 PUSH2 0xF54 DUP4 DUP4 PUSH20 0xFFFFFFFFFFFFFFFFFFFFFFFFFFFFFFFFFFFFFFFF AND PUSH4 0x9F442AFA PUSH1 0x40 MLOAD DUP2 PUSH4 0xFFFFFFFF AND PUSH1 0xE0 SHL DUP2 MSTORE PUSH1 0x4 ADD PUSH1 0x20 PUSH1 0x40 MLOAD DUP1 DUP4 SUB DUP2 DUP7 GAS STATICCALL ISZERO DUP1 ISZERO PUSH2 0xF12 JUMPI RETURNDATASIZE PUSH1 0x0 DUP1 RETURNDATACOPY RETURNDATASIZE PUSH1 0x0 REVERT JUMPDEST POP POP POP POP PUSH1 0x40 MLOAD RETURNDATASIZE PUSH1 0x1F NOT PUSH1 0x1F DUP3 ADD AND DUP3 ADD DUP1 PUSH1 0x40 MSTORE POP DUP2 ADD SWAP1 PUSH2 0xF36 SWAP2 SWAP1 PUSH2 0x2A62 JUMP JUMPDEST DUP2 MLOAD DUP2 LT PUSH2 0xF47 JUMPI PUSH2 0xF46 PUSH2 0x2A8F JUMP JUMPDEST JUMPDEST PUSH1 0x20 MUL PUSH1 0x20 ADD ADD MLOAD PUSH2 0x1221 JUMP JUMPDEST SWAP1 POP DUP1 PUSH20 0xFFFFFFFFFFFFFFFFFFFFFFFFFFFFFFFFFFFFFFFF AND PUSH2 0xF75 PUSH2 0x1219 JUMP JUMPDEST PUSH20 0xFFFFFFFFFFFFFFFFFFFFFFFFFFFFFFFFFFFFFFFF AND EQ PUSH2 0xFCB JUMPI PUSH1 0x40 MLOAD PUSH32 0x8C379A000000000000000000000000000000000000000000000000000000000 DUP2 MSTORE PUSH1 0x4 ADD PUSH2 0xFC2 SWAP1 PUSH2 0x2B30 JUMP JUMPDEST PUSH1 0x40 MLOAD DUP1 SWAP2 SUB SWAP1 REVERT JUMPDEST POP POP POP POP JUMP JUMPDEST PUSH1 0x1 PUSH8 0xFFFFFFFFFFFFFFFF AND DUP4 PUSH8 0xFFFFFFFFFFFFFFFF AND EQ DUP1 ISZERO PUSH2 0x103B JUMPI POP PUSH1 0x0 PUSH1 0x6 PUSH1 0x0 PUSH2 0xFFE PUSH2 0x1219 JUMP JUMPDEST PUSH20 0xFFFFFFFFFFFFFFFFFFFFFFFFFFFFFFFFFFFFFFFF AND PUSH20 0xFFFFFFFFFFFFFFFFFFFFFFFFFFFFFFFFFFFFFFFF AND DUP2 MSTORE PUSH1 0x20 ADD SWAP1 DUP2 MSTORE PUSH1 0x20 ADD PUSH1 0x0 KECCAK256 SLOAD EQ JUMPDEST PUSH2 0x107A JUMPI PUSH1 0x40 MLOAD PUSH32 0x8C379A000000000000000000000000000000000000000000000000000000000 DUP2 MSTORE PUSH1 0x4 ADD PUSH2 0x1071 SWAP1 PUSH2 0x2BC2 JUMP JUMPDEST PUSH1 0x40 MLOAD DUP1 SWAP2 SUB SWAP1 REVERT JUMPDEST PUSH1 0x0 DUP3 DUP3 PUSH20 0xFFFFFFFFFFFFFFFFFFFFFFFFFFFFFFFFFFFFFFFF AND PUSH4 0x9F442AFA PUSH1 0x40 MLOAD DUP2 PUSH4 0xFFFFFFFF AND PUSH1 0xE0 SHL DUP2 MSTORE PUSH1 0x4 ADD PUSH1 0x20 PUSH1 0x40 MLOAD DUP1 DUP4 SUB DUP2 DUP7 GAS STATICCALL ISZERO DUP1 ISZERO PUSH2 0x10C8 JUMPI RETURNDATASIZE PUSH1 0x0 DUP1 RETURNDATACOPY RETURNDATASIZE PUSH1 0x0 REVERT JUMPDEST POP POP POP POP PUSH1 0x40 MLOAD RETURNDATASIZE PUSH1 0x1F NOT PUSH1 0x1F DUP3 ADD AND DUP3 ADD DUP1 PUSH1 0x40 MSTORE POP DUP2 ADD SWAP1 PUSH2 0x10EC SWAP2 SWAP1 PUSH2 0x2A62 JUMP JUMPDEST DUP2 MLOAD DUP2 LT PUSH2 0x10FD JUMPI PUSH2 0x10FC PUSH2 0x2A8F JUMP JUMPDEST JUMPDEST PUSH1 0x20 MUL PUSH1 0x20 ADD ADD MLOAD SWAP1 POP PUSH1 0x0 PUSH20 0xFFFFFFFFFFFFFFFFFFFFFFFFFFFFFFFFFFFFFFFF AND PUSH1 0x5 PUSH1 0x0 DUP4 DUP2 MSTORE PUSH1 0x20 ADD SWAP1 DUP2 MSTORE PUSH1 0x20 ADD PUSH1 0x0 KECCAK256 PUSH1 0x0 SWAP1 SLOAD SWAP1 PUSH2 0x100 EXP SWAP1 DIV PUSH20 0xFFFFFFFFFFFFFFFFFFFFFFFFFFFFFFFFFFFFFFFF AND PUSH20 0xFFFFFFFFFFFFFFFFFFFFFFFFFFFFFFFFFFFFFFFF AND SUB PUSH2 0x1213 JUMPI DUP1 PUSH1 0x6 PUSH1 0x0 PUSH2 0x117B PUSH2 0x1219 JUMP JUMPDEST PUSH20 0xFFFFFFFFFFFFFFFFFFFFFFFFFFFFFFFFFFFFFFFF AND PUSH20 0xFFFFFFFFFFFFFFFFFFFFFFFFFFFFFFFFFFFFFFFF AND DUP2 MSTORE PUSH1 0x20 ADD SWAP1 DUP2 MSTORE PUSH1 0x20 ADD PUSH1 0x0 KECCAK256 DUP2 SWAP1 SSTORE POP PUSH2 0x11C1 PUSH2 0x1219 JUMP JUMPDEST PUSH1 0x5 PUSH1 0x0 DUP4 DUP2 MSTORE PUSH1 0x20 ADD SWAP1 DUP2 MSTORE PUSH1 0x20 ADD PUSH1 0x0 KECCAK256 PUSH1 0x0 PUSH2 0x100 EXP DUP2 SLOAD DUP2 PUSH20 0xFFFFFFFFFFFFFFFFFFFFFFFFFFFFFFFFFFFFFFFF MUL NOT AND SWAP1 DUP4 PUSH20 0xFFFFFFFFFFFFFFFFFFFFFFFFFFFFFFFFFFFFFFFF AND MUL OR SWAP1 SSTORE POP JUMPDEST POP POP POP POP JUMP JUMPDEST PUSH1 0x0 CALLER SWAP1 POP SWAP1 JUMP JUMPDEST PUSH1 0x0 PUSH2 0x123C PUSH2 0x1237 PUSH2 0x1232 DUP5 PUSH2 0x1243 JUMP JUMPDEST PUSH2 0x138F JUMP JUMPDEST PUSH2 0x13EC JUMP JUMPDEST SWAP1 POP SWAP2 SWAP1 POP JUMP JUMPDEST PUSH1 0x0 DUP2 SWAP1 POP PUSH1 0x8 PUSH31 0xFF00FF00FF00FF00FF00FF00FF00FF00FF00FF00FF00FF00FF00FF00FF00FF DUP3 AND SWAP1 SHL PUSH1 0x8 PUSH32 0xFF00FF00FF00FF00FF00FF00FF00FF00FF00FF00FF00FF00FF00FF00FF00FF00 DUP4 AND SWAP1 SHR OR SWAP1 POP PUSH1 0x10 PUSH30 0xFFFF0000FFFF0000FFFF0000FFFF0000FFFF0000FFFF0000FFFF0000FFFF DUP3 AND SWAP1 SHL PUSH1 0x10 PUSH32 0xFFFF0000FFFF0000FFFF0000FFFF0000FFFF0000FFFF0000FFFF0000FFFF0000 DUP4 AND SWAP1 SHR OR SWAP1 POP PUSH1 0x20 PUSH28 0xFFFFFFFF00000000FFFFFFFF00000000FFFFFFFF00000000FFFFFFFF DUP3 AND SWAP1 SHL PUSH1 0x20 PUSH32 0xFFFFFFFF00000000FFFFFFFF00000000FFFFFFFF00000000FFFFFFFF00000000 DUP4 AND SWAP1 SHR OR SWAP1 POP PUSH1 0x40 PUSH24 0xFFFFFFFFFFFFFFFF0000000000000000FFFFFFFFFFFFFFFF DUP3 AND SWAP1 SHL PUSH1 0x40 PUSH32 0xFFFFFFFFFFFFFFFF0000000000000000FFFFFFFFFFFFFFFF0000000000000000 DUP4 AND SWAP1 SHR OR SWAP1 POP PUSH1 0x80 DUP2 SWAP1 SHL PUSH1 0x80 DUP3 SWAP1 SHR OR SWAP1 POP SWAP2 SWAP1 POP JUMP JUMPDEST PUSH1 0x60 PUSH1 0x20 PUSH8 0xFFFFFFFFFFFFFFFF DUP2 GT ISZERO PUSH2 0x13AC JUMPI PUSH2 0x13AB PUSH2 0x1931 JUMP JUMPDEST JUMPDEST PUSH1 0x40 MLOAD SWAP1 DUP1 DUP3 MSTORE DUP1 PUSH1 0x1F ADD PUSH1 0x1F NOT AND PUSH1 0x20 ADD DUP3 ADD PUSH1 0x40 MSTORE DUP1 ISZERO PUSH2 0x13DE JUMPI DUP2 PUSH1 0x20 ADD PUSH1 0x1 DUP3 MUL DUP1 CALLDATASIZE DUP4 CALLDATACOPY DUP1 DUP3 ADD SWAP2 POP POP SWAP1 POP JUMPDEST POP SWAP1 POP DUP2 PUSH1 0x20 DUP3 ADD MSTORE SWAP2 SWAP1 POP JUMP JUMPDEST PUSH1 0x0 PUSH1 0x14 DUP3 ADD MLOAD SWAP1 POP SWAP2 SWAP1 POP JUMP JUMPDEST PUSH1 0x40 MLOAD DUP1 PUSH1 0xA0 ADD PUSH1 0x40 MSTORE DUP1 PUSH1 0x0 DUP2 MSTORE PUSH1 0x20 ADD PUSH1 0x0 DUP2 MSTORE PUSH1 0x20 ADD PUSH1 0x0 DUP2 MSTORE PUSH1 0x20 ADD PUSH1 0x60 DUP2 MSTORE PUSH1 0x20 ADD PUSH1 0x60 DUP2 MSTORE POP SWAP1 JUMP JUMPDEST DUP3 DUP1 SLOAD DUP3 DUP3 SSTORE SWAP1 PUSH1 0x0 MSTORE PUSH1 0x20 PUSH1 0x0 KECCAK256 SWAP1 DUP2 ADD SWAP3 DUP3 ISZERO PUSH2 0x1465 JUMPI SWAP2 PUSH1 0x20 MUL DUP3 ADD JUMPDEST DUP3 DUP2 GT ISZERO PUSH2 0x1464 JUMPI DUP3 MLOAD DUP3 SSTORE SWAP2 PUSH1 0x20 ADD SWAP2 SWAP1 PUSH1 0x1 ADD SWAP1 PUSH2 0x1449 JUMP JUMPDEST JUMPDEST POP SWAP1 POP PUSH2 0x1472 SWAP2 SWAP1 PUSH2 0x1476 JUMP JUMPDEST POP SWAP1 JUMP JUMPDEST JUMPDEST DUP1 DUP3 GT ISZERO PUSH2 0x148F JUMPI PUSH1 0x0 DUP2 PUSH1 0x0 SWAP1 SSTORE POP PUSH1 0x1 ADD PUSH2 0x1477 JUMP JUMPDEST POP SWAP1 JUMP JUMPDEST PUSH1 0x0 PUSH1 0x40 MLOAD SWAP1 POP SWAP1 JUMP JUMPDEST PUSH1 0x0 DUP1 REVERT JUMPDEST PUSH1 0x0 DUP1 REVERT JUMPDEST PUSH1 0x0 PUSH20 0xFFFFFFFFFFFFFFFFFFFFFFFFFFFFFFFFFFFFFFFF DUP3 AND SWAP1 POP SWAP2 SWAP1 POP JUMP JUMPDEST PUSH1 0x0 PUSH2 0x14D2 DUP3 PUSH2 0x14A7 JUMP JUMPDEST SWAP1 POP SWAP2 SWAP1 POP JUMP JUMPDEST PUSH2 0x14E2 DUP2 PUSH2 0x14C7 JUMP JUMPDEST DUP2 EQ PUSH2 0x14ED JUMPI PUSH1 0x0 DUP1 REVERT JUMPDEST POP JUMP JUMPDEST PUSH1 0x0 DUP2 CALLDATALOAD SWAP1 POP PUSH2 0x14FF DUP2 PUSH2 0x14D9 JUMP JUMPDEST SWAP3 SWAP2 POP POP JUMP JUMPDEST PUSH1 0x0 PUSH1 0x20 DUP3 DUP5 SUB SLT ISZERO PUSH2 0x151B JUMPI PUSH2 0x151A PUSH2 0x149D JUMP JUMPDEST JUMPDEST PUSH1 0x0 PUSH2 0x1529 DUP5 DUP3 DUP6 ADD PUSH2 0x14F0 JUMP JUMPDEST SWAP2 POP POP SWAP3 SWAP2 POP POP JUMP JUMPDEST PUSH1 0x0 DUP2 SWAP1 POP SWAP2 SWAP1 POP JUMP JUMPDEST PUSH2 0x1545 DUP2 PUSH2 0x1532 JUMP JUMPDEST DUP3 MSTORE POP POP JUMP JUMPDEST PUSH1 0x0 PUSH1 0x20 DUP3 ADD SWAP1 POP PUSH2 0x1560 PUSH1 0x0 DUP4 ADD DUP5 PUSH2 0x153C JUMP JUMPDEST SWAP3 SWAP2 POP POP JUMP JUMPDEST PUSH1 0x0 DUP2 MLOAD SWAP1 POP SWAP2 SWAP1 POP JUMP JUMPDEST PUSH1 0x0 DUP3 DUP3 MSTORE PUSH1 0x20 DUP3 ADD SWAP1 POP SWAP3 SWAP2 POP POP JUMP JUMPDEST PUSH1 0x0 DUP2 SWAP1 POP PUSH1 0x20 DUP3 ADD SWAP1 POP SWAP2 SWAP1 POP JUMP JUMPDEST PUSH1 0x0 PUSH8 0xFFFFFFFFFFFFFFFF DUP3 AND SWAP1 POP SWAP2 SWAP1 POP JUMP JUMPDEST PUSH2 0x15AF DUP2 PUSH2 0x1592 JUMP JUMPDEST DUP3 MSTORE POP POP JUMP JUMPDEST PUSH1 0x0 PUSH2 0x15C1 DUP4 DUP4 PUSH2 0x15A6 JUMP JUMPDEST PUSH1 0x20 DUP4 ADD SWAP1 POP SWAP3 SWAP2 POP POP JUMP JUMPDEST PUSH1 0x0 PUSH1 0x20 DUP3 ADD SWAP1 POP SWAP2 SWAP1 POP JUMP JUMPDEST PUSH1 0x0 PUSH2 0x15E5 DUP3 PUSH2 0x1566 JUMP JUMPDEST PUSH2 0x15EF DUP2 DUP6 PUSH2 0x1571 JUMP JUMPDEST SWAP4 POP PUSH2 0x15FA DUP4 PUSH2 0x1582 JUMP JUMPDEST DUP1 PUSH1 0x0 JUMPDEST DUP4 DUP2 LT ISZERO PUSH2 0x162B JUMPI DUP2 MLOAD PUSH2 0x1612 DUP9 DUP3 PUSH2 0x15B5 JUMP JUMPDEST SWAP8 POP PUSH2 0x161D DUP4 PUSH2 0x15CD JUMP JUMPDEST SWAP3 POP POP PUSH1 0x1 DUP2 ADD SWAP1 POP PUSH2 0x15FE JUMP JUMPDEST POP DUP6 SWAP4 POP POP POP POP SWAP3 SWAP2 POP POP JUMP JUMPDEST PUSH1 0x0 PUSH1 0x20 DUP3 ADD SWAP1 POP DUP2 DUP2 SUB PUSH1 0x0 DUP4 ADD MSTORE PUSH2 0x1652 DUP2 DUP5 PUSH2 0x15DA JUMP JUMPDEST SWAP1 POP SWAP3 SWAP2 POP POP JUMP JUMPDEST PUSH2 0x1663 DUP2 PUSH2 0x1592 JUMP JUMPDEST DUP3 MSTORE POP POP JUMP JUMPDEST PUSH1 0x0 PUSH1 0x20 DUP3 ADD SWAP1 POP PUSH2 0x167E PUSH1 0x0 DUP4 ADD DUP5 PUSH2 0x165A JUMP JUMPDEST SWAP3 SWAP2 POP POP JUMP JUMPDEST PUSH2 0x168D DUP2 PUSH2 0x1532 JUMP JUMPDEST DUP2 EQ PUSH2 0x1698 JUMPI PUSH1 0x0 DUP1 REVERT JUMPDEST POP JUMP JUMPDEST PUSH1 0x0 DUP2 CALLDATALOAD SWAP1 POP PUSH2 0x16AA DUP2 PUSH2 0x1684 JUMP JUMPDEST SWAP3 SWAP2 POP POP JUMP JUMPDEST PUSH1 0x0 PUSH1 0x20 DUP3 DUP5 SUB SLT ISZERO PUSH2 0x16C6 JUMPI PUSH2 0x16C5 PUSH2 0x149D JUMP JUMPDEST JUMPDEST PUSH1 0x0 PUSH2 0x16D4 DUP5 DUP3 DUP6 ADD PUSH2 0x169B JUMP JUMPDEST SWAP2 POP POP SWAP3 SWAP2 POP POP JUMP JUMPDEST PUSH2 0x16E6 DUP2 PUSH2 0x14C7 JUMP JUMPDEST DUP3 MSTORE POP POP JUMP JUMPDEST PUSH1 0x0 PUSH1 0x20 DUP3 ADD SWAP1 POP PUSH2 0x1701 PUSH1 0x0 DUP4 ADD DUP5 PUSH2 0x16DD JUMP JUMPDEST SWAP3 SWAP2 POP POP JUMP JUMPDEST PUSH2 0x1710 DUP2 PUSH2 0x1592 JUMP JUMPDEST DUP2 EQ PUSH2 0x171B JUMPI PUSH1 0x0 DUP1 REVERT JUMPDEST POP JUMP JUMPDEST PUSH1 0x0 DUP2 CALLDATALOAD SWAP1 POP PUSH2 0x172D DUP2 PUSH2 0x1707 JUMP JUMPDEST SWAP3 SWAP2 POP POP JUMP JUMPDEST PUSH1 0x0 PUSH1 0x20 DUP3 DUP5 SUB SLT ISZERO PUSH2 0x1749 JUMPI PUSH2 0x1748 PUSH2 0x149D JUMP JUMPDEST JUMPDEST PUSH1 0x0 PUSH2 0x1757 DUP5 DUP3 DUP6 ADD PUSH2 0x171E JUMP JUMPDEST SWAP2 POP POP SWAP3 SWAP2 POP POP JUMP JUMPDEST PUSH1 0x0 DUP2 MLOAD SWAP1 POP SWAP2 SWAP1 POP JUMP JUMPDEST PUSH1 0x0 DUP3 DUP3 MSTORE PUSH1 0x20 DUP3 ADD SWAP1 POP SWAP3 SWAP2 POP POP JUMP JUMPDEST PUSH1 0x0 JUMPDEST DUP4 DUP2 LT ISZERO PUSH2 0x179A JUMPI DUP1 DUP3 ADD MLOAD DUP2 DUP5 ADD MSTORE PUSH1 0x20 DUP2 ADD SWAP1 POP PUSH2 0x177F JUMP JUMPDEST PUSH1 0x0 DUP5 DUP5 ADD MSTORE POP POP POP POP JUMP JUMPDEST PUSH1 0x0 PUSH1 0x1F NOT PUSH1 0x1F DUP4 ADD AND SWAP1 POP SWAP2 SWAP1 POP JUMP JUMPDEST PUSH1 0x0 PUSH2 0x17C2 DUP3 PUSH2 0x1760 JUMP JUMPDEST PUSH2 0x17CC DUP2 DUP6 PUSH2 0x176B JUMP JUMPDEST SWAP4 POP PUSH2 0x17DC DUP2 DUP6 PUSH1 0x20 DUP7 ADD PUSH2 0x177C JUMP JUMPDEST PUSH2 0x17E5 DUP2 PUSH2 0x17A6 JUMP JUMPDEST DUP5 ADD SWAP2 POP POP SWAP3 SWAP2 POP POP JUMP JUMPDEST PUSH1 0x0 PUSH1 0x80 DUP3 ADD SWAP1 POP PUSH2 0x1805 PUSH1 0x0 DUP4 ADD DUP8 PUSH2 0x153C JUMP JUMPDEST PUSH2 0x1812 PUSH1 0x20 DUP4 ADD DUP7 PUSH2 0x153C JUMP JUMPDEST PUSH2 0x181F PUSH1 0x40 DUP4 ADD DUP6 PUSH2 0x153C JUMP JUMPDEST DUP2 DUP2 SUB PUSH1 0x60 DUP4 ADD MSTORE PUSH2 0x1831 DUP2 DUP5 PUSH2 0x17B7 JUMP JUMPDEST SWAP1 POP SWAP6 SWAP5 POP POP POP POP POP JUMP JUMPDEST PUSH1 0x0 DUP2 SWAP1 POP SWAP2 SWAP1 POP JUMP JUMPDEST PUSH1 0x0 PUSH2 0x1861 PUSH2 0x185C PUSH2 0x1857 DUP5 PUSH2 0x14A7 JUMP JUMPDEST PUSH2 0x183C JUMP JUMPDEST PUSH2 0x14A7 JUMP JUMPDEST SWAP1 POP SWAP2 SWAP1 POP JUMP JUMPDEST PUSH1 0x0 PUSH2 0x1873 DUP3 PUSH2 0x1846 JUMP JUMPDEST SWAP1 POP SWAP2 SWAP1 POP JUMP JUMPDEST PUSH1 0x0 PUSH2 0x1885 DUP3 PUSH2 0x1868 JUMP JUMPDEST SWAP1 POP SWAP2 SWAP1 POP JUMP JUMPDEST PUSH2 0x1895 DUP2 PUSH2 0x187A JUMP JUMPDEST DUP3 MSTORE POP POP JUMP JUMPDEST PUSH1 0x0 PUSH1 0x20 DUP3 ADD SWAP1 POP PUSH2 0x18B0 PUSH1 0x0 DUP4 ADD DUP5 PUSH2 0x188C JUMP JUMPDEST SWAP3 SWAP2 POP POP JUMP JUMPDEST PUSH1 0x0 DUP1 PUSH1 0x40 DUP4 DUP6 SUB SLT ISZERO PUSH2 0x18CD JUMPI PUSH2 0x18CC PUSH2 0x149D JUMP JUMPDEST JUMPDEST PUSH1 0x0 PUSH2 0x18DB DUP6 DUP3 DUP7 ADD PUSH2 0x14F0 JUMP JUMPDEST SWAP3 POP POP PUSH1 0x20 PUSH2 0x18EC DUP6 DUP3 DUP7 ADD PUSH2 0x171E JUMP JUMPDEST SWAP2 POP POP SWAP3 POP SWAP3 SWAP1 POP JUMP JUMPDEST PUSH1 0x0 DUP2 ISZERO ISZERO SWAP1 POP SWAP2 SWAP1 POP JUMP JUMPDEST PUSH2 0x190B DUP2 PUSH2 0x18F6 JUMP JUMPDEST DUP3 MSTORE POP POP JUMP JUMPDEST PUSH1 0x0 PUSH1 0x20 DUP3 ADD SWAP1 POP PUSH2 0x1926 PUSH1 0x0 DUP4 ADD DUP5 PUSH2 0x1902 JUMP JUMPDEST SWAP3 SWAP2 POP POP JUMP JUMPDEST PUSH1 0x0 DUP1 REVERT JUMPDEST PUSH32 0x4E487B7100000000000000000000000000000000000000000000000000000000 PUSH1 0x0 MSTORE PUSH1 0x41 PUSH1 0x4 MSTORE PUSH1 0x24 PUSH1 0x0 REVERT JUMPDEST PUSH2 0x1969 DUP3 PUSH2 0x17A6 JUMP JUMPDEST DUP2 ADD DUP2 DUP2 LT PUSH8 0xFFFFFFFFFFFFFFFF DUP3 GT OR ISZERO PUSH2 0x1988 JUMPI PUSH2 0x1987 PUSH2 0x1931 JUMP JUMPDEST JUMPDEST DUP1 PUSH1 0x40 MSTORE POP POP POP JUMP JUMPDEST PUSH1 0x0 PUSH2 0x199B PUSH2 0x1493 JUMP JUMPDEST SWAP1 POP PUSH2 0x19A7 DUP3 DUP3 PUSH2 0x1960 JUMP JUMPDEST SWAP2 SWAP1 POP JUMP JUMPDEST PUSH1 0x0 PUSH8 0xFFFFFFFFFFFFFFFF DUP3 GT ISZERO PUSH2 0x19C7 JUMPI PUSH2 0x19C6 PUSH2 0x1931 JUMP JUMPDEST JUMPDEST PUSH1 0x20 DUP3 MUL SWAP1 POP PUSH1 0x20 DUP2 ADD SWAP1 POP SWAP2 SWAP1 POP JUMP JUMPDEST PUSH1 0x0 DUP1 REVERT JUMPDEST PUSH1 0x0 PUSH2 0x19F0 PUSH2 0x19EB DUP5 PUSH2 0x19AC JUMP JUMPDEST PUSH2 0x1991 JUMP JUMPDEST SWAP1 POP DUP1 DUP4 DUP3 MSTORE PUSH1 0x20 DUP3 ADD SWAP1 POP PUSH1 0x20 DUP5 MUL DUP4 ADD DUP6 DUP2 GT ISZERO PUSH2 0x1A13 JUMPI PUSH2 0x1A12 PUSH2 0x19D8 JUMP JUMPDEST JUMPDEST DUP4 JUMPDEST DUP2 DUP2 LT ISZERO PUSH2 0x1A3C JUMPI DUP1 PUSH2 0x1A28 DUP9 DUP3 PUSH2 0x169B JUMP JUMPDEST DUP5 MSTORE PUSH1 0x20 DUP5 ADD SWAP4 POP POP PUSH1 0x20 DUP2 ADD SWAP1 POP PUSH2 0x1A15 JUMP JUMPDEST POP POP POP SWAP4 SWAP3 POP POP POP JUMP JUMPDEST PUSH1 0x0 DUP3 PUSH1 0x1F DUP4 ADD SLT PUSH2 0x1A5B JUMPI PUSH2 0x1A5A PUSH2 0x192C JUMP JUMPDEST JUMPDEST DUP2 CALLDATALOAD PUSH2 0x1A6B DUP5 DUP3 PUSH1 0x20 DUP7 ADD PUSH2 0x19DD JUMP JUMPDEST SWAP2 POP POP SWAP3 SWAP2 POP POP JUMP JUMPDEST PUSH1 0x0 PUSH8 0xFFFFFFFFFFFFFFFF DUP3 GT ISZERO PUSH2 0x1A8F JUMPI PUSH2 0x1A8E PUSH2 0x1931 JUMP JUMPDEST JUMPDEST PUSH1 0x20 DUP3 MUL SWAP1 POP SWAP2 SWAP1 POP JUMP JUMPDEST PUSH1 0x0 PUSH2 0x1AAD PUSH2 0x1AA8 DUP5 PUSH2 0x1A74 JUMP JUMPDEST PUSH2 0x1991 JUMP JUMPDEST SWAP1 POP DUP1 PUSH1 0x20 DUP5 MUL DUP4 ADD DUP6 DUP2 GT ISZERO PUSH2 0x1AC7 JUMPI PUSH2 0x1AC6 PUSH2 0x19D8 JUMP JUMPDEST JUMPDEST DUP4 JUMPDEST DUP2 DUP2 LT ISZERO PUSH2 0x1AF0 JUMPI DUP1 PUSH2 0x1ADC DUP9 DUP3 PUSH2 0x169B JUMP JUMPDEST DUP5 MSTORE PUSH1 0x20 DUP5 ADD SWAP4 POP POP PUSH1 0x20 DUP2 ADD SWAP1 POP PUSH2 0x1AC9 JUMP JUMPDEST POP POP POP SWAP4 SWAP3 POP POP POP JUMP JUMPDEST PUSH1 0x0 DUP3 PUSH1 0x1F DUP4 ADD SLT PUSH2 0x1B0F JUMPI PUSH2 0x1B0E PUSH2 0x192C JUMP JUMPDEST JUMPDEST PUSH1 0x2 PUSH2 0x1B1C DUP5 DUP3 DUP6 PUSH2 0x1A9A JUMP JUMPDEST SWAP2 POP POP SWAP3 SWAP2 POP POP JUMP JUMPDEST PUSH1 0x0 PUSH8 0xFFFFFFFFFFFFFFFF DUP3 GT ISZERO PUSH2 0x1B40 JUMPI PUSH2 0x1B3F PUSH2 0x1931 JUMP JUMPDEST JUMPDEST PUSH1 0x20 DUP3 MUL SWAP1 POP SWAP2 SWAP1 POP JUMP JUMPDEST PUSH1 0x0 PUSH2 0x1B5E PUSH2 0x1B59 DUP5 PUSH2 0x1B25 JUMP JUMPDEST PUSH2 0x1991 JUMP JUMPDEST SWAP1 POP DUP1 PUSH1 0x40 DUP5 MUL DUP4 ADD DUP6 DUP2 GT ISZERO PUSH2 0x1B78 JUMPI PUSH2 0x1B77 PUSH2 0x19D8 JUMP JUMPDEST JUMPDEST DUP4 JUMPDEST DUP2 DUP2 LT ISZERO PUSH2 0x1BA1 JUMPI DUP1 PUSH2 0x1B8D DUP9 DUP3 PUSH2 0x1AFA JUMP JUMPDEST DUP5 MSTORE PUSH1 0x20 DUP5 ADD SWAP4 POP POP PUSH1 0x40 DUP2 ADD SWAP1 POP PUSH2 0x1B7A JUMP JUMPDEST POP POP POP SWAP4 SWAP3 POP POP POP JUMP JUMPDEST PUSH1 0x0 DUP3 PUSH1 0x1F DUP4 ADD SLT PUSH2 0x1BC0 JUMPI PUSH2 0x1BBF PUSH2 0x192C JUMP JUMPDEST JUMPDEST PUSH1 0x2 PUSH2 0x1BCD DUP5 DUP3 DUP6 PUSH2 0x1B4B JUMP JUMPDEST SWAP2 POP POP SWAP3 SWAP2 POP POP JUMP JUMPDEST PUSH1 0x0 DUP1 PUSH1 0x0 DUP1 PUSH1 0x0 PUSH2 0x140 DUP7 DUP9 SUB SLT ISZERO PUSH2 0x1BF3 JUMPI PUSH2 0x1BF2 PUSH2 0x149D JUMP JUMPDEST JUMPDEST PUSH1 0x0 PUSH2 0x1C01 DUP9 DUP3 DUP10 ADD PUSH2 0x171E JUMP JUMPDEST SWAP6 POP POP PUSH1 0x20 DUP7 ADD CALLDATALOAD PUSH8 0xFFFFFFFFFFFFFFFF DUP2 GT ISZERO PUSH2 0x1C22 JUMPI PUSH2 0x1C21 PUSH2 0x14A2 JUMP JUMPDEST JUMPDEST PUSH2 0x1C2E DUP9 DUP3 DUP10 ADD PUSH2 0x1A46 JUMP JUMPDEST SWAP5 POP POP PUSH1 0x40 PUSH2 0x1C3F DUP9 DUP3 DUP10 ADD PUSH2 0x1AFA JUMP JUMPDEST SWAP4 POP POP PUSH1 0x80 PUSH2 0x1C50 DUP9 DUP3 DUP10 ADD PUSH2 0x1BAB JUMP JUMPDEST SWAP3 POP POP PUSH2 0x100 PUSH2 0x1C62 DUP9 DUP3 DUP10 ADD PUSH2 0x1AFA JUMP JUMPDEST SWAP2 POP POP SWAP3 SWAP6 POP SWAP3 SWAP6 SWAP1 SWAP4 POP JUMP JUMPDEST PUSH2 0x1C78 DUP2 PUSH2 0x1532 JUMP JUMPDEST DUP3 MSTORE POP POP JUMP JUMPDEST PUSH1 0x0 DUP2 MLOAD SWAP1 POP SWAP2 SWAP1 POP JUMP JUMPDEST PUSH1 0x0 DUP3 DUP3 MSTORE PUSH1 0x20 DUP3 ADD SWAP1 POP SWAP3 SWAP2 POP POP JUMP JUMPDEST PUSH1 0x0 DUP2 SWAP1 POP PUSH1 0x20 DUP3 ADD SWAP1 POP SWAP2 SWAP1 POP JUMP JUMPDEST PUSH1 0x0 PUSH2 0x1CB6 DUP4 DUP4 PUSH2 0x1C6F JUMP JUMPDEST PUSH1 0x20 DUP4 ADD SWAP1 POP SWAP3 SWAP2 POP POP JUMP JUMPDEST PUSH1 0x0 PUSH1 0x20 DUP3 ADD SWAP1 POP SWAP2 SWAP1 POP JUMP JUMPDEST PUSH1 0x0 PUSH2 0x1CDA DUP3 PUSH2 0x1C7E JUMP JUMPDEST PUSH2 0x1CE4 DUP2 DUP6 PUSH2 0x1C89 JUMP JUMPDEST SWAP4 POP PUSH2 0x1CEF DUP4 PUSH2 0x1C9A JUMP JUMPDEST DUP1 PUSH1 0x0 JUMPDEST DUP4 DUP2 LT ISZERO PUSH2 0x1D20 JUMPI DUP2 MLOAD PUSH2 0x1D07 DUP9 DUP3 PUSH2 0x1CAA JUMP JUMPDEST SWAP8 POP PUSH2 0x1D12 DUP4 PUSH2 0x1CC2 JUMP JUMPDEST SWAP3 POP POP PUSH1 0x1 DUP2 ADD SWAP1 POP PUSH2 0x1CF3 JUMP JUMPDEST POP DUP6 SWAP4 POP POP POP POP SWAP3 SWAP2 POP POP JUMP JUMPDEST PUSH1 0x0 DUP3 DUP3 MSTORE PUSH1 0x20 DUP3 ADD SWAP1 POP SWAP3 SWAP2 POP POP JUMP JUMPDEST PUSH1 0x0 PUSH2 0x1D49 DUP3 PUSH2 0x1760 JUMP JUMPDEST PUSH2 0x1D53 DUP2 DUP6 PUSH2 0x1D2D JUMP JUMPDEST SWAP4 POP PUSH2 0x1D63 DUP2 DUP6 PUSH1 0x20 DUP7 ADD PUSH2 0x177C JUMP JUMPDEST PUSH2 0x1D6C DUP2 PUSH2 0x17A6 JUMP JUMPDEST DUP5 ADD SWAP2 POP POP SWAP3 SWAP2 POP POP JUMP JUMPDEST PUSH1 0x0 PUSH1 0xA0 DUP4 ADD PUSH1 0x0 DUP4 ADD MLOAD PUSH2 0x1D8F PUSH1 0x0 DUP7 ADD DUP3 PUSH2 0x1C6F JUMP JUMPDEST POP PUSH1 0x20 DUP4 ADD MLOAD PUSH2 0x1DA2 PUSH1 0x20 DUP7 ADD DUP3 PUSH2 0x1C6F JUMP JUMPDEST POP PUSH1 0x40 DUP4 ADD MLOAD PUSH2 0x1DB5 PUSH1 0x40 DUP7 ADD DUP3 PUSH2 0x1C6F JUMP JUMPDEST POP PUSH1 0x60 DUP4 ADD MLOAD DUP5 DUP3 SUB PUSH1 0x60 DUP7 ADD MSTORE PUSH2 0x1DCD DUP3 DUP3 PUSH2 0x1CCF JUMP JUMPDEST SWAP2 POP POP PUSH1 0x80 DUP4 ADD MLOAD DUP5 DUP3 SUB PUSH1 0x80 DUP7 ADD MSTORE PUSH2 0x1DE7 DUP3 DUP3 PUSH2 0x1D3E JUMP JUMPDEST SWAP2 POP POP DUP1 SWAP2 POP POP SWAP3 SWAP2 POP POP JUMP JUMPDEST PUSH1 0x0 PUSH1 0x20 DUP3 ADD SWAP1 POP DUP2 DUP2 SUB PUSH1 0x0 DUP4 ADD MSTORE PUSH2 0x1E0E DUP2 DUP5 PUSH2 0x1D77 JUMP JUMPDEST SWAP1 POP SWAP3 SWAP2 POP POP JUMP JUMPDEST PUSH1 0x0 PUSH2 0x1E21 DUP3 PUSH2 0x14C7 JUMP JUMPDEST SWAP1 POP SWAP2 SWAP1 POP JUMP JUMPDEST PUSH2 0x1E31 DUP2 PUSH2 0x1E16 JUMP JUMPDEST DUP2 EQ PUSH2 0x1E3C JUMPI PUSH1 0x0 DUP1 REVERT JUMPDEST POP JUMP JUMPDEST PUSH1 0x0 DUP2 CALLDATALOAD SWAP1 POP PUSH2 0x1E4E DUP2 PUSH2 0x1E28 JUMP JUMPDEST SWAP3 SWAP2 POP POP JUMP JUMPDEST PUSH1 0x0 DUP1 REVERT JUMPDEST PUSH1 0x0 DUP1 REVERT JUMPDEST PUSH1 0x0 DUP1 REVERT JUMPDEST PUSH1 0x0 PUSH8 0xFFFFFFFFFFFFFFFF DUP3 GT ISZERO PUSH2 0x1E7E JUMPI PUSH2 0x1E7D PUSH2 0x1931 JUMP JUMPDEST JUMPDEST PUSH2 0x1E87 DUP3 PUSH2 0x17A6 JUMP JUMPDEST SWAP1 POP PUSH1 0x20 DUP2 ADD SWAP1 POP SWAP2 SWAP1 POP JUMP JUMPDEST DUP3 DUP2 DUP4 CALLDATACOPY PUSH1 0x0 DUP4 DUP4 ADD MSTORE POP POP POP JUMP JUMPDEST PUSH1 0x0 PUSH2 0x1EB6 PUSH2 0x1EB1 DUP5 PUSH2 0x1E63 JUMP JUMPDEST PUSH2 0x1991 JUMP JUMPDEST SWAP1 POP DUP3 DUP2 MSTORE PUSH1 0x20 DUP2 ADD DUP5 DUP5 DUP5 ADD GT ISZERO PUSH2 0x1ED2 JUMPI PUSH2 0x1ED1 PUSH2 0x1E5E JUMP JUMPDEST JUMPDEST PUSH2 0x1EDD DUP5 DUP3 DUP6 PUSH2 0x1E94 JUMP JUMPDEST POP SWAP4 SWAP3 POP POP POP JUMP JUMPDEST PUSH1 0x0 DUP3 PUSH1 0x1F DUP4 ADD SLT PUSH2 0x1EFA JUMPI PUSH2 0x1EF9 PUSH2 0x192C JUMP JUMPDEST JUMPDEST DUP2 CALLDATALOAD PUSH2 0x1F0A DUP5 DUP3 PUSH1 0x20 DUP7 ADD PUSH2 0x1EA3 JUMP JUMPDEST SWAP2 POP POP SWAP3 SWAP2 POP POP JUMP JUMPDEST PUSH1 0x0 PUSH1 0xA0 DUP3 DUP5 SUB SLT ISZERO PUSH2 0x1F29 JUMPI PUSH2 0x1F28 PUSH2 0x1E54 JUMP JUMPDEST JUMPDEST PUSH2 0x1F33 PUSH1 0xA0 PUSH2 0x1991 JUMP JUMPDEST SWAP1 POP PUSH1 0x0 PUSH2 0x1F43 DUP5 DUP3 DUP6 ADD PUSH2 0x169B JUMP JUMPDEST PUSH1 0x0 DUP4 ADD MSTORE POP PUSH1 0x20 PUSH2 0x1F57 DUP5 DUP3 DUP6 ADD PUSH2 0x169B JUMP JUMPDEST PUSH1 0x20 DUP4 ADD MSTORE POP PUSH1 0x40 PUSH2 0x1F6B DUP5 DUP3 DUP6 ADD PUSH2 0x169B JUMP JUMPDEST PUSH1 0x40 DUP4 ADD MSTORE POP PUSH1 0x60 DUP3 ADD CALLDATALOAD PUSH8 0xFFFFFFFFFFFFFFFF DUP2 GT ISZERO PUSH2 0x1F8F JUMPI PUSH2 0x1F8E PUSH2 0x1E59 JUMP JUMPDEST JUMPDEST PUSH2 0x1F9B DUP5 DUP3 DUP6 ADD PUSH2 0x1A46 JUMP JUMPDEST PUSH1 0x60 DUP4 ADD MSTORE POP PUSH1 0x80 DUP3 ADD CALLDATALOAD PUSH8 0xFFFFFFFFFFFFFFFF DUP2 GT ISZERO PUSH2 0x1FBF JUMPI PUSH2 0x1FBE PUSH2 0x1E59 JUMP JUMPDEST JUMPDEST PUSH2 0x1FCB DUP5 DUP3 DUP6 ADD PUSH2 0x1EE5 JUMP JUMPDEST PUSH1 0x80 DUP4 ADD MSTORE POP SWAP3 SWAP2 POP POP JUMP JUMPDEST PUSH1 0x0 DUP1 PUSH1 0x0 PUSH1 0x60 DUP5 DUP7 SUB SLT ISZERO PUSH2 0x1FF0 JUMPI PUSH2 0x1FEF PUSH2 0x149D JUMP JUMPDEST JUMPDEST PUSH1 0x0 PUSH2 0x1FFE DUP7 DUP3 DUP8 ADD PUSH2 0x171E JUMP JUMPDEST SWAP4 POP POP PUSH1 0x20 PUSH2 0x200F DUP7 DUP3 DUP8 ADD PUSH2 0x1E3F JUMP JUMPDEST SWAP3 POP POP PUSH1 0x40 DUP5 ADD CALLDATALOAD PUSH8 0xFFFFFFFFFFFFFFFF DUP2 GT ISZERO PUSH2 0x2030 JUMPI PUSH2 0x202F PUSH2 0x14A2 JUMP JUMPDEST JUMPDEST PUSH2 0x203C DUP7 DUP3 DUP8 ADD PUSH2 0x1F13 JUMP JUMPDEST SWAP2 POP POP SWAP3 POP SWAP3 POP SWAP3 JUMP JUMPDEST PUSH32 0x4E487B7100000000000000000000000000000000000000000000000000000000 PUSH1 0x0 MSTORE PUSH1 0x22 PUSH1 0x4 MSTORE PUSH1 0x24 PUSH1 0x0 REVERT JUMPDEST PUSH1 0x0 PUSH1 0x2 DUP3 DIV SWAP1 POP PUSH1 0x1 DUP3 AND DUP1 PUSH2 0x208D JUMPI PUSH1 0x7F DUP3 AND SWAP2 POP JUMPDEST PUSH1 0x20 DUP3 LT DUP2 SUB PUSH2 0x20A0 JUMPI PUSH2 0x209F PUSH2 0x2046 JUMP JUMPDEST JUMPDEST POP SWAP2 SWAP1 POP JUMP JUMPDEST PUSH32 0x76616C696461746F72206973206E6F742073657420666F722074686973207265 PUSH1 0x0 DUP3 ADD MSTORE PUSH32 0x7175657374206964000000000000000000000000000000000000000000000000 PUSH1 0x20 DUP3 ADD MSTORE POP JUMP JUMPDEST PUSH1 0x0 PUSH2 0x2102 PUSH1 0x28 DUP4 PUSH2 0x176B JUMP JUMPDEST SWAP2 POP PUSH2 0x210D DUP3 PUSH2 0x20A6 JUMP JUMPDEST PUSH1 0x40 DUP3 ADD SWAP1 POP SWAP2 SWAP1 POP JUMP JUMPDEST PUSH1 0x0 PUSH1 0x20 DUP3 ADD SWAP1 POP DUP2 DUP2 SUB PUSH1 0x0 DUP4 ADD MSTORE PUSH2 0x2131 DUP2 PUSH2 0x20F5 JUMP JUMPDEST SWAP1 POP SWAP2 SWAP1 POP JUMP JUMPDEST PUSH32 0x7175657279206973206E6F742073657420666F72207468697320726571756573 PUSH1 0x0 DUP3 ADD MSTORE PUSH32 0x7420696400000000000000000000000000000000000000000000000000000000 PUSH1 0x20 DUP3 ADD MSTORE POP JUMP JUMPDEST PUSH1 0x0 PUSH2 0x2194 PUSH1 0x24 DUP4 PUSH2 0x176B JUMP JUMPDEST SWAP2 POP PUSH2 0x219F DUP3 PUSH2 0x2138 JUMP JUMPDEST PUSH1 0x40 DUP3 ADD SWAP1 POP SWAP2 SWAP1 POP JUMP JUMPDEST PUSH1 0x0 PUSH1 0x20 DUP3 ADD SWAP1 POP DUP2 DUP2 SUB PUSH1 0x0 DUP4 ADD MSTORE PUSH2 0x21C3 DUP2 PUSH2 0x2187 JUMP JUMPDEST SWAP1 POP SWAP2 SWAP1 POP JUMP JUMPDEST PUSH1 0x0 DUP3 DUP3 MSTORE PUSH1 0x20 DUP3 ADD SWAP1 POP SWAP3 SWAP2 POP POP JUMP JUMPDEST PUSH1 0x0 PUSH2 0x21E6 DUP3 PUSH2 0x1C7E JUMP JUMPDEST PUSH2 0x21F0 DUP2 DUP6 PUSH2 0x21CA JUMP JUMPDEST SWAP4 POP PUSH2 0x21FB DUP4 PUSH2 0x1C9A JUMP JUMPDEST DUP1 PUSH1 0x0 JUMPDEST DUP4 DUP2 LT ISZERO PUSH2 0x222C JUMPI DUP2 MLOAD PUSH2 0x2213 DUP9 DUP3 PUSH2 0x1CAA JUMP JUMPDEST SWAP8 POP PUSH2 0x221E DUP4 PUSH2 0x1CC2 JUMP JUMPDEST SWAP3 POP POP PUSH1 0x1 DUP2 ADD SWAP1 POP PUSH2 0x21FF JUMP JUMPDEST POP DUP6 SWAP4 POP POP POP POP SWAP3 SWAP2 POP POP JUMP JUMPDEST PUSH1 0x0 PUSH1 0x2 SWAP1 POP SWAP2 SWAP1 POP JUMP JUMPDEST PUSH1 0x0 DUP2 SWAP1 POP SWAP3 SWAP2 POP POP JUMP JUMPDEST PUSH1 0x0 DUP2 SWAP1 POP SWAP2 SWAP1 POP JUMP JUMPDEST PUSH1 0x0 PUSH1 0x20 DUP3 ADD SWAP1 POP SWAP2 SWAP1 POP JUMP JUMPDEST PUSH2 0x226F DUP2 PUSH2 0x2239 JUMP JUMPDEST PUSH2 0x2279 DUP2 DUP5 PUSH2 0x2244 JUMP JUMPDEST SWAP3 POP PUSH2 0x2284 DUP3 PUSH2 0x224F JUMP JUMPDEST DUP1 PUSH1 0x0 JUMPDEST DUP4 DUP2 LT ISZERO PUSH2 0x22B5 JUMPI DUP2 MLOAD PUSH2 0x229C DUP8 DUP3 PUSH2 0x1CAA JUMP JUMPDEST SWAP7 POP PUSH2 0x22A7 DUP4 PUSH2 0x2259 JUMP JUMPDEST SWAP3 POP POP PUSH1 0x1 DUP2 ADD SWAP1 POP PUSH2 0x2288 JUMP JUMPDEST POP POP POP POP POP POP JUMP JUMPDEST PUSH1 0x0 PUSH1 0x2 SWAP1 POP SWAP2 SWAP1 POP JUMP JUMPDEST PUSH1 0x0 DUP2 SWAP1 POP SWAP3 SWAP2 POP POP JUMP JUMPDEST PUSH1 0x0 DUP2 SWAP1 POP SWAP2 SWAP1 POP JUMP JUMPDEST PUSH1 0x0 DUP2 SWAP1 POP SWAP3 SWAP2 POP POP JUMP JUMPDEST PUSH2 0x22F1 DUP2 PUSH2 0x2239 JUMP JUMPDEST PUSH2 0x22FB DUP2 DUP5 PUSH2 0x22DD JUMP JUMPDEST SWAP3 POP PUSH2 0x2306 DUP3 PUSH2 0x224F JUMP JUMPDEST DUP1 PUSH1 0x0 JUMPDEST DUP4 DUP2 LT ISZERO PUSH2 0x2337 JUMPI DUP2 MLOAD PUSH2 0x231E DUP8 DUP3 PUSH2 0x1CAA JUMP JUMPDEST SWAP7 POP PUSH2 0x2329 DUP4 PUSH2 0x2259 JUMP JUMPDEST SWAP3 POP POP PUSH1 0x1 DUP2 ADD SWAP1 POP PUSH2 0x230A JUMP JUMPDEST POP POP POP POP POP POP JUMP JUMPDEST PUSH1 0x0 PUSH2 0x234B DUP4 DUP4 PUSH2 0x22E8 JUMP JUMPDEST PUSH1 0x40 DUP4 ADD SWAP1 POP SWAP3 SWAP2 POP POP JUMP JUMPDEST PUSH1 0x0 PUSH1 0x20 DUP3 ADD SWAP1 POP SWAP2 SWAP1 POP JUMP JUMPDEST PUSH2 0x236D DUP2 PUSH2 0x22BD JUMP JUMPDEST PUSH2 0x2377 DUP2 DUP5 PUSH2 0x22C8 JUMP JUMPDEST SWAP3 POP PUSH2 0x2382 DUP3 PUSH2 0x22D3 JUMP JUMPDEST DUP1 PUSH1 0x0 JUMPDEST DUP4 DUP2 LT ISZERO PUSH2 0x23B3 JUMPI DUP2 MLOAD PUSH2 0x239A DUP8 DUP3 PUSH2 0x233F JUMP JUMPDEST SWAP7 POP PUSH2 0x23A5 DUP4 PUSH2 0x2357 JUMP JUMPDEST SWAP3 POP POP PUSH1 0x1 DUP2 ADD SWAP1 POP PUSH2 0x2386 JUMP JUMPDEST POP POP POP POP POP POP JUMP JUMPDEST PUSH1 0x0 DUP2 PUSH1 0x0 SHR SWAP1 POP SWAP2 SWAP1 POP JUMP JUMPDEST PUSH1 0x0 DUP2 SWAP1 POP SWAP2 SWAP1 POP JUMP JUMPDEST PUSH1 0x0 PUSH2 0x23E5 PUSH2 0x23E0 DUP4 PUSH2 0x23BB JUMP JUMPDEST PUSH2 0x23C8 JUMP JUMPDEST SWAP1 POP SWAP2 SWAP1 POP JUMP JUMPDEST PUSH1 0x0 DUP2 SLOAD SWAP1 POP SWAP2 SWAP1 POP JUMP JUMPDEST PUSH1 0x0 DUP2 SWAP1 POP DUP2 PUSH1 0x0 MSTORE PUSH1 0x20 PUSH1 0x0 KECCAK256 SWAP1 POP SWAP2 SWAP1 POP JUMP JUMPDEST PUSH1 0x0 PUSH2 0x2418 DUP3 SLOAD PUSH2 0x23D2 JUMP JUMPDEST SWAP1 POP SWAP2 SWAP1 POP JUMP JUMPDEST PUSH1 0x0 PUSH1 0x1 DUP3 ADD SWAP1 POP SWAP2 SWAP1 POP JUMP JUMPDEST PUSH1 0x0 PUSH2 0x2437 DUP3 PUSH2 0x23EC JUMP JUMPDEST PUSH2 0x2441 DUP2 DUP6 PUSH2 0x1C89 JUMP JUMPDEST SWAP4 POP PUSH2 0x244C DUP4 PUSH2 0x23F7 JUMP JUMPDEST DUP1 PUSH1 0x0 JUMPDEST DUP4 DUP2 LT ISZERO PUSH2 0x2484 JUMPI PUSH2 0x2461 DUP3 PUSH2 0x240C JUMP JUMPDEST PUSH2 0x246B DUP9 DUP3 PUSH2 0x1CAA JUMP JUMPDEST SWAP8 POP PUSH2 0x2476 DUP4 PUSH2 0x241F JUMP JUMPDEST SWAP3 POP POP PUSH1 0x1 DUP2 ADD SWAP1 POP PUSH2 0x2450 JUMP JUMPDEST POP DUP6 SWAP4 POP POP POP POP SWAP3 SWAP2 POP POP JUMP JUMPDEST PUSH1 0x0 DUP2 SWAP1 POP DUP2 PUSH1 0x0 MSTORE PUSH1 0x20 PUSH1 0x0 KECCAK256 SWAP1 POP SWAP2 SWAP1 POP JUMP JUMPDEST PUSH1 0x0 DUP2 SLOAD PUSH2 0x24B3 DUP2 PUSH2 0x2075 JUMP JUMPDEST PUSH2 0x24BD DUP2 DUP7 PUSH2 0x1D2D JUMP JUMPDEST SWAP5 POP PUSH1 0x1 DUP3 AND PUSH1 0x0 DUP2 EQ PUSH2 0x24D8 JUMPI PUSH1 0x1 DUP2 EQ PUSH2 0x24EE JUMPI PUSH2 0x2521 JUMP JUMPDEST PUSH1 0xFF NOT DUP4 AND DUP7 MSTORE DUP2 ISZERO ISZERO PUSH1 0x20 MUL DUP7 ADD SWAP4 POP PUSH2 0x2521 JUMP JUMPDEST PUSH2 0x24F7 DUP6 PUSH2 0x2491 JUMP JUMPDEST PUSH1 0x0 JUMPDEST DUP4 DUP2 LT ISZERO PUSH2 0x2519 JUMPI DUP2 SLOAD DUP2 DUP10 ADD MSTORE PUSH1 0x1 DUP3 ADD SWAP2 POP PUSH1 0x20 DUP2 ADD SWAP1 POP PUSH2 0x24FA JUMP JUMPDEST DUP1 DUP9 ADD SWAP6 POP POP POP JUMPDEST POP POP POP SWAP3 SWAP2 POP POP JUMP JUMPDEST PUSH1 0x0 PUSH1 0xA0 DUP4 ADD PUSH1 0x0 DUP1 DUP5 ADD SLOAD SWAP1 POP PUSH2 0x2541 DUP2 PUSH2 0x23D2 JUMP JUMPDEST PUSH2 0x254E PUSH1 0x0 DUP8 ADD DUP3 PUSH2 0x1C6F JUMP JUMPDEST POP PUSH1 0x1 DUP5 ADD SLOAD SWAP1 POP PUSH2 0x255F DUP2 PUSH2 0x23D2 JUMP JUMPDEST PUSH2 0x256C PUSH1 0x20 DUP8 ADD DUP3 PUSH2 0x1C6F JUMP JUMPDEST POP PUSH1 0x2 DUP5 ADD SLOAD SWAP1 POP PUSH2 0x257D DUP2 PUSH2 0x23D2 JUMP JUMPDEST PUSH2 0x258A PUSH1 0x40 DUP8 ADD DUP3 PUSH2 0x1C6F JUMP JUMPDEST POP PUSH1 0x3 DUP5 ADD DUP6 DUP4 SUB PUSH1 0x60 DUP8 ADD MSTORE PUSH2 0x25A1 DUP4 DUP3 PUSH2 0x242C JUMP JUMPDEST SWAP3 POP POP PUSH1 0x4 DUP5 ADD DUP6 DUP4 SUB PUSH1 0x80 DUP8 ADD MSTORE PUSH2 0x25BA DUP4 DUP3 PUSH2 0x24A6 JUMP JUMPDEST SWAP3 POP POP DUP2 SWAP3 POP POP POP SWAP3 SWAP2 POP POP JUMP JUMPDEST PUSH1 0x0 PUSH2 0x140 DUP3 ADD SWAP1 POP DUP2 DUP2 SUB PUSH1 0x0 DUP4 ADD MSTORE PUSH2 0x25E3 DUP2 DUP9 PUSH2 0x21DB JUMP JUMPDEST SWAP1 POP PUSH2 0x25F2 PUSH1 0x20 DUP4 ADD DUP8 PUSH2 0x2266 JUMP JUMPDEST PUSH2 0x25FF PUSH1 0x60 DUP4 ADD DUP7 PUSH2 0x2364 JUMP JUMPDEST PUSH2 0x260C PUSH1 0xE0 DUP4 ADD DUP6 PUSH2 0x2266 JUMP JUMPDEST DUP2 DUP2 SUB PUSH2 0x120 DUP4 ADD MSTORE PUSH2 0x261F DUP2 DUP5 PUSH2 0x252A JUMP JUMPDEST SWAP1 POP SWAP7 SWAP6 POP POP POP POP POP POP JUMP JUMPDEST PUSH2 0x2634 DUP2 PUSH2 0x18F6 JUMP JUMPDEST DUP2 EQ PUSH2 0x263F JUMPI PUSH1 0x0 DUP1 REVERT JUMPDEST POP JUMP JUMPDEST PUSH1 0x0 DUP2 MLOAD SWAP1 POP PUSH2 0x2651 DUP2 PUSH2 0x262B JUMP JUMPDEST SWAP3 SWAP2 POP POP JUMP JUMPDEST PUSH1 0x0 PUSH1 0x20 DUP3 DUP5 SUB SLT ISZERO PUSH2 0x266D JUMPI PUSH2 0x266C PUSH2 0x149D JUMP JUMPDEST JUMPDEST PUSH1 0x0 PUSH2 0x267B DUP5 DUP3 DUP6 ADD PUSH2 0x2642 JUMP JUMPDEST SWAP2 POP POP SWAP3 SWAP2 POP POP JUMP JUMPDEST PUSH32 0x70726F6F6620726573706F6E7365206973206E6F742076616C69640000000000 PUSH1 0x0 DUP3 ADD MSTORE POP JUMP JUMPDEST PUSH1 0x0 PUSH2 0x26BA PUSH1 0x1B DUP4 PUSH2 0x176B JUMP JUMPDEST SWAP2 POP PUSH2 0x26C5 DUP3 PUSH2 0x2684 JUMP JUMPDEST PUSH1 0x20 DUP3 ADD SWAP1 POP SWAP2 SWAP1 POP JUMP JUMPDEST PUSH1 0x0 PUSH1 0x20 DUP3 ADD SWAP1 POP DUP2 DUP2 SUB PUSH1 0x0 DUP4 ADD MSTORE PUSH2 0x26E9 DUP2 PUSH2 0x26AD JUMP JUMPDEST SWAP1 POP SWAP2 SWAP1 POP JUMP JUMPDEST PUSH32 0x4F776E61626C653A206E6577206F776E657220697320746865207A65726F2061 PUSH1 0x0 DUP3 ADD MSTORE PUSH32 0x6464726573730000000000000000000000000000000000000000000000000000 PUSH1 0x20 DUP3 ADD MSTORE POP JUMP JUMPDEST PUSH1 0x0 PUSH2 0x274C PUSH1 0x26 DUP4 PUSH2 0x176B JUMP JUMPDEST SWAP2 POP PUSH2 0x2757 DUP3 PUSH2 0x26F0 JUMP JUMPDEST PUSH1 0x40 DUP3 ADD SWAP1 POP SWAP2 SWAP1 POP JUMP JUMPDEST PUSH1 0x0 PUSH1 0x20 DUP3 ADD SWAP1 POP DUP2 DUP2 SUB PUSH1 0x0 DUP4 ADD MSTORE PUSH2 0x277B DUP2 PUSH2 0x273F JUMP JUMPDEST SWAP1 POP SWAP2 SWAP1 POP JUMP JUMPDEST PUSH1 0x0 PUSH1 0x20 PUSH1 0x1F DUP4 ADD DIV SWAP1 POP SWAP2 SWAP1 POP JUMP JUMPDEST PUSH1 0x0 DUP3 DUP3 SHL SWAP1 POP SWAP3 SWAP2 POP POP JUMP JUMPDEST PUSH1 0x0 PUSH1 0x8 DUP4 MUL PUSH2 0x27CF PUSH32 0xFFFFFFFFFFFFFFFFFFFFFFFFFFFFFFFFFFFFFFFFFFFFFFFFFFFFFFFFFFFFFFFF DUP3 PUSH2 0x2792 JUMP JUMPDEST PUSH2 0x27D9 DUP7 DUP4 PUSH2 0x2792 JUMP JUMPDEST SWAP6 POP DUP1 NOT DUP5 AND SWAP4 POP DUP1 DUP7 AND DUP5 OR SWAP3 POP POP POP SWAP4 SWAP3 POP POP POP JUMP JUMPDEST PUSH1 0x0 PUSH2 0x280C PUSH2 0x2807 PUSH2 0x2802 DUP5 PUSH2 0x1532 JUMP JUMPDEST PUSH2 0x183C JUMP JUMPDEST PUSH2 0x1532 JUMP JUMPDEST SWAP1 POP SWAP2 SWAP1 POP JUMP JUMPDEST PUSH1 0x0 DUP2 SWAP1 POP SWAP2 SWAP1 POP JUMP JUMPDEST PUSH2 0x2826 DUP4 PUSH2 0x27F1 JUMP JUMPDEST PUSH2 0x283A PUSH2 0x2832 DUP3 PUSH2 0x2813 JUMP JUMPDEST DUP5 DUP5 SLOAD PUSH2 0x279F JUMP JUMPDEST DUP3 SSTORE POP POP POP POP JUMP JUMPDEST PUSH1 0x0 SWAP1 JUMP JUMPDEST PUSH2 0x284F PUSH2 0x2842 JUMP JUMPDEST PUSH2 0x285A DUP2 DUP5 DUP5 PUSH2 0x281D JUMP JUMPDEST POP POP POP JUMP JUMPDEST JUMPDEST DUP2 DUP2 LT ISZERO PUSH2 0x287E JUMPI PUSH2 0x2873 PUSH1 0x0 DUP3 PUSH2 0x2847 JUMP JUMPDEST PUSH1 0x1 DUP2 ADD SWAP1 POP PUSH2 0x2860 JUMP JUMPDEST POP POP JUMP JUMPDEST PUSH1 0x1F DUP3 GT ISZERO PUSH2 0x28C3 JUMPI PUSH2 0x2894 DUP2 PUSH2 0x2491 JUMP JUMPDEST PUSH2 0x289D DUP5 PUSH2 0x2782 JUMP JUMPDEST DUP2 ADD PUSH1 0x20 DUP6 LT ISZERO PUSH2 0x28AC JUMPI DUP2 SWAP1 POP JUMPDEST PUSH2 0x28C0 PUSH2 0x28B8 DUP6 PUSH2 0x2782 JUMP JUMPDEST DUP4 ADD DUP3 PUSH2 0x285F JUMP JUMPDEST POP POP JUMPDEST POP POP POP JUMP JUMPDEST PUSH1 0x0 DUP3 DUP3 SHR SWAP1 POP SWAP3 SWAP2 POP POP JUMP JUMPDEST PUSH1 0x0 PUSH2 0x28E6 PUSH1 0x0 NOT DUP5 PUSH1 0x8 MUL PUSH2 0x28C8 JUMP JUMPDEST NOT DUP1 DUP4 AND SWAP2 POP POP SWAP3 SWAP2 POP POP JUMP JUMPDEST PUSH1 0x0 PUSH2 0x28FF DUP4 DUP4 PUSH2 0x28D5 JUMP JUMPDEST SWAP2 POP DUP3 PUSH1 0x2 MUL DUP3 OR SWAP1 POP SWAP3 SWAP2 POP POP JUMP JUMPDEST PUSH2 0x2918 DUP3 PUSH2 0x1760 JUMP JUMPDEST PUSH8 0xFFFFFFFFFFFFFFFF DUP2 GT ISZERO PUSH2 0x2931 JUMPI PUSH2 0x2930 PUSH2 0x1931 JUMP JUMPDEST JUMPDEST PUSH2 0x293B DUP3 SLOAD PUSH2 0x2075 JUMP JUMPDEST PUSH2 0x2946 DUP3 DUP3 DUP6 PUSH2 0x2882 JUMP JUMPDEST PUSH1 0x0 PUSH1 0x20 SWAP1 POP PUSH1 0x1F DUP4 GT PUSH1 0x1 DUP2 EQ PUSH2 0x2979 JUMPI PUSH1 0x0 DUP5 ISZERO PUSH2 0x2967 JUMPI DUP3 DUP8 ADD MLOAD SWAP1 POP JUMPDEST PUSH2 0x2971 DUP6 DUP3 PUSH2 0x28F3 JUMP JUMPDEST DUP7 SSTORE POP PUSH2 0x29D9 JUMP JUMPDEST PUSH1 0x1F NOT DUP5 AND PUSH2 0x2987 DUP7 PUSH2 0x2491 JUMP JUMPDEST PUSH1 0x0 JUMPDEST DUP3 DUP2 LT ISZERO PUSH2 0x29AF JUMPI DUP5 DUP10 ADD MLOAD DUP3 SSTORE PUSH1 0x1 DUP3 ADD SWAP2 POP PUSH1 0x20 DUP6 ADD SWAP5 POP PUSH1 0x20 DUP2 ADD SWAP1 POP PUSH2 0x298A JUMP JUMPDEST DUP7 DUP4 LT ISZERO PUSH2 0x29CC JUMPI DUP5 DUP10 ADD MLOAD PUSH2 0x29C8 PUSH1 0x1F DUP10 AND DUP3 PUSH2 0x28D5 JUMP JUMPDEST DUP4 SSTORE POP JUMPDEST PUSH1 0x1 PUSH1 0x2 DUP9 MUL ADD DUP9 SSTORE POP POP POP JUMPDEST POP POP POP POP POP POP JUMP JUMPDEST PUSH32 0x4F776E61626C653A2063616C6C6572206973206E6F7420746865206F776E6572 PUSH1 0x0 DUP3 ADD MSTORE POP JUMP JUMPDEST PUSH1 0x0 PUSH2 0x2A17 PUSH1 0x20 DUP4 PUSH2 0x176B JUMP JUMPDEST SWAP2 POP PUSH2 0x2A22 DUP3 PUSH2 0x29E1 JUMP JUMPDEST PUSH1 0x20 DUP3 ADD SWAP1 POP SWAP2 SWAP1 POP JUMP JUMPDEST PUSH1 0x0 PUSH1 0x20 DUP3 ADD SWAP1 POP DUP2 DUP2 SUB PUSH1 0x0 DUP4 ADD MSTORE PUSH2 0x2A46 DUP2 PUSH2 0x2A0A JUMP JUMPDEST SWAP1 POP SWAP2 SWAP1 POP JUMP JUMPDEST PUSH1 0x0 DUP2 MLOAD SWAP1 POP PUSH2 0x2A5C DUP2 PUSH2 0x1684 JUMP JUMPDEST SWAP3 SWAP2 POP POP JUMP JUMPDEST PUSH1 0x0 PUSH1 0x20 DUP3 DUP5 SUB SLT ISZERO PUSH2 0x2A78 JUMPI PUSH2 0x2A77 PUSH2 0x149D JUMP JUMPDEST JUMPDEST PUSH1 0x0 PUSH2 0x2A86 DUP5 DUP3 DUP6 ADD PUSH2 0x2A4D JUMP JUMPDEST SWAP2 POP POP SWAP3 SWAP2 POP POP JUMP JUMPDEST PUSH32 0x4E487B7100000000000000000000000000000000000000000000000000000000 PUSH1 0x0 MSTORE PUSH1 0x32 PUSH1 0x4 MSTORE PUSH1 0x24 PUSH1 0x0 REVERT JUMPDEST PUSH32 0x6164647265737320696E2070726F6F66206973206E6F7420612073656E646572 PUSH1 0x0 DUP3 ADD MSTORE PUSH32 0x2061646472657373000000000000000000000000000000000000000000000000 PUSH1 0x20 DUP3 ADD MSTORE POP JUMP JUMPDEST PUSH1 0x0 PUSH2 0x2B1A PUSH1 0x28 DUP4 PUSH2 0x176B JUMP JUMPDEST SWAP2 POP PUSH2 0x2B25 DUP3 PUSH2 0x2ABE JUMP JUMPDEST PUSH1 0x40 DUP3 ADD SWAP1 POP SWAP2 SWAP1 POP JUMP JUMPDEST PUSH1 0x0 PUSH1 0x20 DUP3 ADD SWAP1 POP DUP2 DUP2 SUB PUSH1 0x0 DUP4 ADD MSTORE PUSH2 0x2B49 DUP2 PUSH2 0x2B0D JUMP JUMPDEST SWAP1 POP SWAP2 SWAP1 POP JUMP JUMPDEST PUSH32 0x70726F6F662063616E206E6F74206265207375626D6974746564206D6F726520 PUSH1 0x0 DUP3 ADD MSTORE PUSH32 0x7468616E206F6E63650000000000000000000000000000000000000000000000 PUSH1 0x20 DUP3 ADD MSTORE POP JUMP JUMPDEST PUSH1 0x0 PUSH2 0x2BAC PUSH1 0x29 DUP4 PUSH2 0x176B JUMP JUMPDEST SWAP2 POP PUSH2 0x2BB7 DUP3 PUSH2 0x2B50 JUMP JUMPDEST PUSH1 0x40 DUP3 ADD SWAP1 POP SWAP2 SWAP1 POP JUMP JUMPDEST PUSH1 0x0 PUSH1 0x20 DUP3 ADD SWAP1 POP DUP2 DUP2 SUB PUSH1 0x0 DUP4 ADD MSTORE PUSH2 0x2BDB DUP2 PUSH2 0x2B9F JUMP JUMPDEST SWAP1 POP SWAP2 SWAP1 POP JUMP INVALID LOG2 PUSH5 0x6970667358 0x22 SLT KECCAK256 PUSH5 0x332D2FEC8D 0xAE CALL CODECOPY 0xE1 0xA7 SDIV ADDMOD 0xED AND LOG3 ADD 0xC PUSH15 0x4530A74009AD0AEEA3ED990FA76473 PUSH16 0x6C634300081100330000000000000000 "},"methodIdentifiers":{"TRANSFER_REQUEST_ID()":"63ec508f","checkAddress(address)":"0ddcfe8e","checkID(uint256)":"8d94f0bb","getSupportedRequests()":"37ba9523","getZKPRequest(uint64)":"c76d0845","owner()":"8da5cb5b","proofs(address,uint64)":"b45c0fdf","renounceOwnership()":"715018a6","requestQueries(uint64)":"96bf4741","requestValidators(uint64)":"a8723114","setZKPRequest(uint64,address,(uint256,uint256,uint256,uint256[],string))":"fee207e6","submitZKPResponse(uint64,uint256[],uint256[2],uint256[2][2],uint256[2])":"b68967e2","supportedRequests(uint256)":"f1435326","transferOwnership(address)":"f2fde38b"}}}}}