{
  "_format": "hh-sol-artifact-1",
  "contractName": "Counsumer",
  "sourceName": "Contracts/Cosumer.sol",
  "abi": [
    {
      "inputs": [],
      "stateMutability": "nonpayable",
      "type": "constructor"
    },
    {
      "anonymous": false,
      "inputs": [
        {
          "indexed": true,
          "internalType": "bytes32",
          "name": "id",
          "type": "bytes32"
        }
      ],
      "name": "ChainlinkCancelled",
      "type": "event"
    },
    {
      "anonymous": false,
      "inputs": [
        {
          "indexed": true,
          "internalType": "bytes32",
          "name": "id",
          "type": "bytes32"
        }
      ],
      "name": "ChainlinkFulfilled",
      "type": "event"
    },
    {
      "anonymous": false,
      "inputs": [
        {
          "indexed": true,
          "internalType": "bytes32",
          "name": "id",
          "type": "bytes32"
        }
      ],
      "name": "ChainlinkRequested",
      "type": "event"
    },
    {
      "anonymous": false,
      "inputs": [
        {
          "indexed": true,
          "internalType": "address",
          "name": "from",
          "type": "address"
        },
        {
          "indexed": true,
          "internalType": "address",
          "name": "to",
          "type": "address"
        }
      ],
      "name": "OwnershipTransferRequested",
      "type": "event"
    },
    {
      "anonymous": false,
      "inputs": [
        {
          "indexed": true,
          "internalType": "address",
          "name": "from",
          "type": "address"
        },
        {
          "indexed": true,
          "internalType": "address",
          "name": "to",
          "type": "address"
        }
      ],
      "name": "OwnershipTransferred",
      "type": "event"
    },
    {
      "inputs": [],
      "name": "acceptOwnership",
      "outputs": [],
      "stateMutability": "nonpayable",
      "type": "function"
    },
    {
      "inputs": [
        {
          "internalType": "bytes32",
          "name": "_requestId",
          "type": "bytes32"
        },
        {
          "internalType": "string",
          "name": "_info",
          "type": "string"
        }
      ],
      "name": "fulfill",
      "outputs": [],
      "stateMutability": "nonpayable",
      "type": "function"
    },
    {
      "inputs": [],
      "name": "lastRetrivedData",
      "outputs": [
        {
          "internalType": "string",
          "name": "",
          "type": "string"
        }
      ],
      "stateMutability": "view",
      "type": "function"
    },
    {
      "inputs": [],
      "name": "owner",
      "outputs": [
        {
          "internalType": "address",
          "name": "",
          "type": "address"
        }
      ],
      "stateMutability": "view",
      "type": "function"
    },
    {
      "inputs": [
        {
          "internalType": "string",
          "name": "jobId",
          "type": "string"
        },
        {
          "internalType": "string",
          "name": "panNumber",
          "type": "string"
        }
      ],
      "name": "requestInfo",
      "outputs": [
        {
          "internalType": "bytes32",
          "name": "requestId",
          "type": "bytes32"
        }
      ],
      "stateMutability": "nonpayable",
      "type": "function"
    },
    {
      "inputs": [
        {
          "internalType": "address",
          "name": "to",
          "type": "address"
        }
      ],
      "name": "transferOwnership",
      "outputs": [],
      "stateMutability": "nonpayable",
      "type": "function"
    },
    {
      "inputs": [],
      "name": "withdrawLink",
      "outputs": [],
      "stateMutability": "nonpayable",
      "type": "function"
    }
  ],
  "bytecode": "0x608060405260016004553480156200001657600080fd5b50338060008073ffffffffffffffffffffffffffffffffffffffff168273ffffffffffffffffffffffffffffffffffffffff16036200008c576040517f08c379a000000000000000000000000000000000000000000000000000000000815260040162000083906200036e565b60405180910390fd5b81600660006101000a81548173ffffffffffffffffffffffffffffffffffffffff021916908373ffffffffffffffffffffffffffffffffffffffff160217905550600073ffffffffffffffffffffffffffffffffffffffff168173ffffffffffffffffffffffffffffffffffffffff1614620001145762000113816200015460201b60201c565b5b5050506200013c73326c977e6efc84e512bb9c30f76e30c160ed06fb6200028560201b60201c565b6200014e6000620002c960201b60201c565b62000402565b3373ffffffffffffffffffffffffffffffffffffffff168173ffffffffffffffffffffffffffffffffffffffff1603620001c5576040517f08c379a0000000000000000000000000000000000000000000000000000000008152600401620001bc90620003e0565b60405180910390fd5b80600760006101000a81548173ffffffffffffffffffffffffffffffffffffffff021916908373ffffffffffffffffffffffffffffffffffffffff1602179055508073ffffffffffffffffffffffffffffffffffffffff16600660009054906101000a900473ffffffffffffffffffffffffffffffffffffffff1673ffffffffffffffffffffffffffffffffffffffff167fed8889f560326eb138920d842192f0eb3dd22b4f139c87a2c57538e05bae127860405160405180910390a350565b80600260006101000a81548173ffffffffffffffffffffffffffffffffffffffff021916908373ffffffffffffffffffffffffffffffffffffffff16021790555050565b80600360006101000a81548173ffffffffffffffffffffffffffffffffffffffff021916908373ffffffffffffffffffffffffffffffffffffffff16021790555050565b600082825260208201905092915050565b7f43616e6e6f7420736574206f776e657220746f207a65726f0000000000000000600082015250565b6000620003566018836200030d565b915062000363826200031e565b602082019050919050565b60006020820190508181036000830152620003898162000347565b9050919050565b7f43616e6e6f74207472616e7366657220746f2073656c66000000000000000000600082015250565b6000620003c86017836200030d565b9150620003d58262000390565b602082019050919050565b60006020820190508181036000830152620003fb81620003b9565b9050919050565b6121fd80620004126000396000f3fe608060405234801561001057600080fd5b506004361061007d5760003560e01c80638da5cb5b1161005b5780638da5cb5b146100d85780638dc654a2146100f6578063dbeddca414610100578063f2fde38b1461011e5761007d565b806337441996146100825780636fce1b721461009e57806379ba5097146100ce575b600080fd5b61009c60048036038101906100979190611373565b61013a565b005b6100b860048036038101906100b3919061142f565b610254565b6040516100c591906114bf565b60405180910390f35b6100d6610362565b005b6100e06104f9565b6040516100ed919061151b565b60405180910390f35b6100fe610523565b005b610108610670565b60405161011591906115b5565b60405180910390f35b61013860048036038101906101339190611603565b6106fe565b005b816005600082815260200190815260200160002060009054906101000a900473ffffffffffffffffffffffffffffffffffffffff1673ffffffffffffffffffffffffffffffffffffffff163373ffffffffffffffffffffffffffffffffffffffff16146101dc576040517f08c379a00000000000000000000000000000000000000000000000000000000081526004016101d3906116a2565b60405180910390fd5b6005600082815260200190815260200160002060006101000a81549073ffffffffffffffffffffffffffffffffffffffff0219169055807f7cc135e0cebb02c3480ae5d74d377283180a2601f8f644edf7987b009316c63a60405160405180910390a2816008908161024e91906118d8565b50505050565b6000806102b56102a787878080601f016020809104026020016040519081016040528093929190818152602001838380828437600081840152601f19601f82011690508083019250505050505050610712565b30633744199660e01b61073b565b90506103456040518060400160405280600981526020017f70616e4e756d626572000000000000000000000000000000000000000000000081525085858080601f016020809104026020016040519081016040528093929190818152602001838380828437600081840152601f19601f820116905080830192505050505050508361076c9092919063ffffffff16565b6103578167016345785d8a000061079f565b915050949350505050565b600760009054906101000a900473ffffffffffffffffffffffffffffffffffffffff1673ffffffffffffffffffffffffffffffffffffffff163373ffffffffffffffffffffffffffffffffffffffff16146103f2576040517f08c379a00000000000000000000000000000000000000000000000000000000081526004016103e9906119f6565b60405180910390fd5b6000600660009054906101000a900473ffffffffffffffffffffffffffffffffffffffff16905033600660006101000a81548173ffffffffffffffffffffffffffffffffffffffff021916908373ffffffffffffffffffffffffffffffffffffffff1602179055506000600760006101000a81548173ffffffffffffffffffffffffffffffffffffffff021916908373ffffffffffffffffffffffffffffffffffffffff1602179055503373ffffffffffffffffffffffffffffffffffffffff168173ffffffffffffffffffffffffffffffffffffffff167f8be0079c531659141344cd1fd0a4f28419497f9722a3daafe3b4186f6b6457e060405160405180910390a350565b6000600660009054906101000a900473ffffffffffffffffffffffffffffffffffffffff16905090565b61052b6107d6565b6000610535610868565b90508073ffffffffffffffffffffffffffffffffffffffff1663a9059cbb338373ffffffffffffffffffffffffffffffffffffffff166370a08231306040518263ffffffff1660e01b815260040161058d919061151b565b602060405180830381865afa1580156105aa573d6000803e3d6000fd5b505050506040513d601f19601f820116820180604052508101906105ce9190611a42565b6040518363ffffffff1660e01b81526004016105eb929190611a7e565b6020604051808303816000875af115801561060a573d6000803e3d6000fd5b505050506040513d601f19601f8201168201806040525081019061062e9190611adf565b61066d576040517f08c379a000000000000000000000000000000000000000000000000000000000815260040161066490611b58565b60405180910390fd5b50565b6008805461067d906116f1565b80601f01602080910402602001604051908101604052809291908181526020018280546106a9906116f1565b80156106f65780601f106106cb576101008083540402835291602001916106f6565b820191906000526020600020905b8154815290600101906020018083116106d957829003601f168201915b505050505081565b6107066107d6565b61070f81610892565b50565b600080829050600081510361072d576000801b915050610736565b60208301519150505b919050565b61074361115c565b61074b61115c565b610762858585846109c0909392919063ffffffff16565b9150509392505050565b610783828460800151610a7090919063ffffffff16565b61079a818460800151610a7090919063ffffffff16565b505050565b60006107ce600360009054906101000a900473ffffffffffffffffffffffffffffffffffffffff168484610a95565b905092915050565b600660009054906101000a900473ffffffffffffffffffffffffffffffffffffffff1673ffffffffffffffffffffffffffffffffffffffff163373ffffffffffffffffffffffffffffffffffffffff1614610866576040517f08c379a000000000000000000000000000000000000000000000000000000000815260040161085d90611bc4565b60405180910390fd5b565b6000600260009054906101000a900473ffffffffffffffffffffffffffffffffffffffff16905090565b3373ffffffffffffffffffffffffffffffffffffffff168173ffffffffffffffffffffffffffffffffffffffff1603610900576040517f08c379a00000000000000000000000000000000000000000000000000000000081526004016108f790611c30565b60405180910390fd5b80600760006101000a81548173ffffffffffffffffffffffffffffffffffffffff021916908373ffffffffffffffffffffffffffffffffffffffff1602179055508073ffffffffffffffffffffffffffffffffffffffff16600660009054906101000a900473ffffffffffffffffffffffffffffffffffffffff1673ffffffffffffffffffffffffffffffffffffffff167fed8889f560326eb138920d842192f0eb3dd22b4f139c87a2c57538e05bae127860405160405180910390a350565b6109c861115c565b6109d88560800151610100610b61565b508385600001818152505082856020019073ffffffffffffffffffffffffffffffffffffffff16908173ffffffffffffffffffffffffffffffffffffffff16815250508185604001907bffffffffffffffffffffffffffffffffffffffffffffffffffffffff191690817bffffffffffffffffffffffffffffffffffffffffffffffffffffffff191681525050849050949350505050565b610a7d8260038351610bcb565b610a908183610d5090919063ffffffff16565b505050565b6000806004549050600181610aaa9190611c7f565b6004819055506000634042994660e01b60008087600001513089604001518760018c6080015160000151604051602401610aeb989796959493929190611d43565b604051602081830303815290604052907bffffffffffffffffffffffffffffffffffffffffffffffffffffffff19166020820180517bffffffffffffffffffffffffffffffffffffffffffffffffffffffff83818316178352505050509050610b5686838684610d72565b925050509392505050565b610b696111c9565b6000602083610b789190611df7565b14610ba457602082610b8a9190611df7565b6020610b969190611e28565b82610ba19190611c7f565b91505b81836020018181525050604051808452600081528281016020016040525082905092915050565b60178167ffffffffffffffff1611610c0257610bfc8160058460ff16901b60ff161784610f0790919063ffffffff16565b50610d4b565b60ff8167ffffffffffffffff1611610c5857610c31601860058460ff16901b1784610f0790919063ffffffff16565b50610c528167ffffffffffffffff16600185610f279092919063ffffffff16565b50610d4a565b61ffff8167ffffffffffffffff1611610caf57610c88601960058460ff16901b1784610f0790919063ffffffff16565b50610ca98167ffffffffffffffff16600285610f279092919063ffffffff16565b50610d49565b63ffffffff8167ffffffffffffffff1611610d0857610ce1601a60058460ff16901b1784610f0790919063ffffffff16565b50610d028167ffffffffffffffff16600485610f279092919063ffffffff16565b50610d48565b610d25601b60058460ff16901b1784610f0790919063ffffffff16565b50610d468167ffffffffffffffff16600885610f279092919063ffffffff16565b505b5b5b5b505050565b610d586111c9565b610d6a83846000015151848551610f49565b905092915050565b60003084604051602001610d87929190611f0b565b604051602081830303815290604052805190602001209050846005600083815260200190815260200160002060006101000a81548173ffffffffffffffffffffffffffffffffffffffff021916908373ffffffffffffffffffffffffffffffffffffffff160217905550807fb5e6e01e79f91267dc17b4e6314d5d4d03593d2ceee0fbb452b750bd70ea5af960405160405180910390a2600260009054906101000a900473ffffffffffffffffffffffffffffffffffffffff1673ffffffffffffffffffffffffffffffffffffffff16634000aea08685856040518463ffffffff1660e01b8152600401610e7d93929190611f37565b6020604051808303816000875af1158015610e9c573d6000803e3d6000fd5b505050506040513d601f19601f82011682018060405250810190610ec09190611adf565b610eff576040517f08c379a0000000000000000000000000000000000000000000000000000000008152600401610ef690611fe7565b60405180910390fd5b949350505050565b610f0f6111c9565b610f1f8384600001515184611038565b905092915050565b610f2f6111c9565b610f4084856000015151858561108e565b90509392505050565b610f516111c9565b8251821115610f5f57600080fd5b84602001518285610f709190611c7f565b1115610fa557610fa4856002610f9588602001518887610f909190611c7f565b61111c565b610f9f9190612007565b611138565b5b600080865180518760208301019350808887011115610fc45787860182525b60208701925050505b6020841061100b5780518252602082610fe69190611c7f565b9150602081610ff59190611c7f565b90506020846110049190611e28565b9350610fcd565b60006001856020036101000a03905080198251168184511681811785525050508692505050949350505050565b6110406111c9565b836020015183106110665761106584600286602001516110609190612007565b611138565b5b83518051602085830101848153818603611081576001820183525b5050508390509392505050565b6110966111c9565b846020015184836110a79190611c7f565b11156110cf576110ce85600286856110bf9190611c7f565b6110c99190612007565b611138565b5b60006001836101006110e1919061217c565b6110eb9190611e28565b9050855183868201018583198251161781528151858801111561110e5784870182525b505085915050949350505050565b60008183111561112e57829050611132565b8190505b92915050565b60008260000151905061114b8383610b61565b506111568382610d50565b50505050565b6040518060a0016040528060008019168152602001600073ffffffffffffffffffffffffffffffffffffffff16815260200160007bffffffffffffffffffffffffffffffffffffffffffffffffffffffff19168152602001600081526020016111c36111c9565b81525090565b604051806040016040528060608152602001600081525090565b6000604051905090565b600080fd5b600080fd5b6000819050919050565b61120a816111f7565b811461121557600080fd5b50565b60008135905061122781611201565b92915050565b600080fd5b600080fd5b6000601f19601f8301169050919050565b7f4e487b7100000000000000000000000000000000000000000000000000000000600052604160045260246000fd5b61128082611237565b810181811067ffffffffffffffff8211171561129f5761129e611248565b5b80604052505050565b60006112b26111e3565b90506112be8282611277565b919050565b600067ffffffffffffffff8211156112de576112dd611248565b5b6112e782611237565b9050602081019050919050565b82818337600083830152505050565b6000611316611311846112c3565b6112a8565b90508281526020810184848401111561133257611331611232565b5b61133d8482856112f4565b509392505050565b600082601f83011261135a5761135961122d565b5b813561136a848260208601611303565b91505092915050565b6000806040838503121561138a576113896111ed565b5b600061139885828601611218565b925050602083013567ffffffffffffffff8111156113b9576113b86111f2565b5b6113c585828601611345565b9150509250929050565b600080fd5b600080fd5b60008083601f8401126113ef576113ee61122d565b5b8235905067ffffffffffffffff81111561140c5761140b6113cf565b5b602083019150836001820283011115611428576114276113d4565b5b9250929050565b60008060008060408587031215611449576114486111ed565b5b600085013567ffffffffffffffff811115611467576114666111f2565b5b611473878288016113d9565b9450945050602085013567ffffffffffffffff811115611496576114956111f2565b5b6114a2878288016113d9565b925092505092959194509250565b6114b9816111f7565b82525050565b60006020820190506114d460008301846114b0565b92915050565b600073ffffffffffffffffffffffffffffffffffffffff82169050919050565b6000611505826114da565b9050919050565b611515816114fa565b82525050565b6000602082019050611530600083018461150c565b92915050565b600081519050919050565b600082825260208201905092915050565b60005b83811015611570578082015181840152602081019050611555565b60008484015250505050565b600061158782611536565b6115918185611541565b93506115a1818560208601611552565b6115aa81611237565b840191505092915050565b600060208201905081810360008301526115cf818461157c565b905092915050565b6115e0816114fa565b81146115eb57600080fd5b50565b6000813590506115fd816115d7565b92915050565b600060208284031215611619576116186111ed565b5b6000611627848285016115ee565b91505092915050565b7f536f75726365206d75737420626520746865206f7261636c65206f662074686560008201527f2072657175657374000000000000000000000000000000000000000000000000602082015250565b600061168c602883611541565b915061169782611630565b604082019050919050565b600060208201905081810360008301526116bb8161167f565b9050919050565b7f4e487b7100000000000000000000000000000000000000000000000000000000600052602260045260246000fd5b6000600282049050600182168061170957607f821691505b60208210810361171c5761171b6116c2565b5b50919050565b60008190508160005260206000209050919050565b60006020601f8301049050919050565b600082821b905092915050565b6000600883026117847fffffffffffffffffffffffffffffffffffffffffffffffffffffffffffffffff82611747565b61178e8683611747565b95508019841693508086168417925050509392505050565b6000819050919050565b6000819050919050565b60006117d56117d06117cb846117a6565b6117b0565b6117a6565b9050919050565b6000819050919050565b6117ef836117ba565b6118036117fb826117dc565b848454611754565b825550505050565b600090565b61181861180b565b6118238184846117e6565b505050565b5b818110156118475761183c600082611810565b600181019050611829565b5050565b601f82111561188c5761185d81611722565b61186684611737565b81016020851015611875578190505b61188961188185611737565b830182611828565b50505b505050565b600082821c905092915050565b60006118af60001984600802611891565b1980831691505092915050565b60006118c8838361189e565b9150826002028217905092915050565b6118e182611536565b67ffffffffffffffff8111156118fa576118f9611248565b5b61190482546116f1565b61190f82828561184b565b600060209050601f8311600181146119425760008415611930578287015190505b61193a85826118bc565b8655506119a2565b601f19841661195086611722565b60005b8281101561197857848901518255600182019150602085019450602081019050611953565b868310156119955784890151611991601f89168261189e565b8355505b6001600288020188555050505b505050505050565b7f4d7573742062652070726f706f736564206f776e657200000000000000000000600082015250565b60006119e0601683611541565b91506119eb826119aa565b602082019050919050565b60006020820190508181036000830152611a0f816119d3565b9050919050565b611a1f816117a6565b8114611a2a57600080fd5b50565b600081519050611a3c81611a16565b92915050565b600060208284031215611a5857611a576111ed565b5b6000611a6684828501611a2d565b91505092915050565b611a78816117a6565b82525050565b6000604082019050611a93600083018561150c565b611aa06020830184611a6f565b9392505050565b60008115159050919050565b611abc81611aa7565b8114611ac757600080fd5b50565b600081519050611ad981611ab3565b92915050565b600060208284031215611af557611af46111ed565b5b6000611b0384828501611aca565b91505092915050565b7f556e61626c6520746f207472616e736665720000000000000000000000000000600082015250565b6000611b42601283611541565b9150611b4d82611b0c565b602082019050919050565b60006020820190508181036000830152611b7181611b35565b9050919050565b7f4f6e6c792063616c6c61626c65206279206f776e657200000000000000000000600082015250565b6000611bae601683611541565b9150611bb982611b78565b602082019050919050565b60006020820190508181036000830152611bdd81611ba1565b9050919050565b7f43616e6e6f74207472616e7366657220746f2073656c66000000000000000000600082015250565b6000611c1a601783611541565b9150611c2582611be4565b602082019050919050565b60006020820190508181036000830152611c4981611c0d565b9050919050565b7f4e487b7100000000000000000000000000000000000000000000000000000000600052601160045260246000fd5b6000611c8a826117a6565b9150611c95836117a6565b9250828201905080821115611cad57611cac611c50565b5b92915050565b60007fffffffff0000000000000000000000000000000000000000000000000000000082169050919050565b611ce881611cb3565b82525050565b600081519050919050565b600082825260208201905092915050565b6000611d1582611cee565b611d1f8185611cf9565b9350611d2f818560208601611552565b611d3881611237565b840191505092915050565b600061010082019050611d59600083018b61150c565b611d66602083018a611a6f565b611d7360408301896114b0565b611d80606083018861150c565b611d8d6080830187611cdf565b611d9a60a0830186611a6f565b611da760c0830185611a6f565b81810360e0830152611db98184611d0a565b90509998505050505050505050565b7f4e487b7100000000000000000000000000000000000000000000000000000000600052601260045260246000fd5b6000611e02826117a6565b9150611e0d836117a6565b925082611e1d57611e1c611dc8565b5b828206905092915050565b6000611e33826117a6565b9150611e3e836117a6565b9250828203905081811115611e5657611e55611c50565b5b92915050565b6000611e77611e72611e6d846114da565b6117b0565b6114da565b9050919050565b6000611e8982611e5c565b9050919050565b6000611e9b82611e7e565b9050919050565b60008160601b9050919050565b6000611eba82611ea2565b9050919050565b6000611ecc82611eaf565b9050919050565b611ee4611edf82611e90565b611ec1565b82525050565b6000819050919050565b611f05611f00826117a6565b611eea565b82525050565b6000611f178285611ed3565b601482019150611f278284611ef4565b6020820191508190509392505050565b6000606082019050611f4c600083018661150c565b611f596020830185611a6f565b8181036040830152611f6b8184611d0a565b9050949350505050565b7f756e61626c6520746f207472616e73666572416e6443616c6c20746f206f726160008201527f636c650000000000000000000000000000000000000000000000000000000000602082015250565b6000611fd1602383611541565b9150611fdc82611f75565b604082019050919050565b6000602082019050818103600083015261200081611fc4565b9050919050565b6000612012826117a6565b915061201d836117a6565b925082820261202b816117a6565b9150828204841483151761204257612041611c50565b5b5092915050565b60008160011c9050919050565b6000808291508390505b60018511156120a05780860481111561207c5761207b611c50565b5b600185161561208b5780820291505b808102905061209985612049565b9450612060565b94509492505050565b6000826120b95760019050612175565b816120c75760009050612175565b81600181146120dd57600281146120e757612116565b6001915050612175565b60ff8411156120f9576120f8611c50565b5b8360020a9150848211156121105761210f611c50565b5b50612175565b5060208310610133831016604e8410600b841016171561214b5782820a90508381111561214657612145611c50565b5b612175565b6121588484846001612056565b9250905081840481111561216f5761216e611c50565b5b81810290505b9392505050565b6000612187826117a6565b9150612192836117a6565b92506121bf7fffffffffffffffffffffffffffffffffffffffffffffffffffffffffffffffff84846120a9565b90509291505056fea26469706673582212200eba11fd709ac456cf26a0f67dff90c19121255150dc621accd1a49992ff293f64736f6c63430008110033",
  "linkReferences": {},
  "deployedLinkReferences": {}
}