{
  "_format": "hh-sol-artifact-1",
  "contractName": "AgeVerification",
  "sourceName": "Contracts/AgeVerification.sol",
  "abi": [
    {
      "anonymous": false,
      "inputs": [
        {
          "indexed": true,
          "internalType": "address",
          "name": "previousOwner",
          "type": "address"
        },
        {
          "indexed": true,
          "internalType": "address",
          "name": "newOwner",
          "type": "address"
        }
      ],
      "name": "OwnershipTransferred",
      "type": "event"
    },
    {
      "inputs": [],
      "name": "TRANSFER_REQUEST_ID",
      "outputs": [
        {
          "internalType": "uint64",
          "name": "",
          "type": "uint64"
        }
      ],
      "stateMutability": "view",
      "type": "function"
    },
    {
      "inputs": [
        {
          "internalType": "address",
          "name": "",
          "type": "address"
        }
      ],
      "name": "checkAddress",
      "outputs": [
        {
          "internalType": "uint256",
          "name": "",
          "type": "uint256"
        }
      ],
      "stateMutability": "view",
      "type": "function"
    },
    {
      "inputs": [
        {
          "internalType": "uint256",
          "name": "",
          "type": "uint256"
        }
      ],
      "name": "checkID",
      "outputs": [
        {
          "internalType": "address",
          "name": "",
          "type": "address"
        }
      ],
      "stateMutability": "view",
      "type": "function"
    },
    {
      "inputs": [],
      "name": "getSupportedRequests",
      "outputs": [
        {
          "internalType": "uint64[]",
          "name": "arr",
          "type": "uint64[]"
        }
      ],
      "stateMutability": "view",
      "type": "function"
    },
    {
      "inputs": [
        {
          "internalType": "uint64",
          "name": "requestId",
          "type": "uint64"
        }
      ],
      "name": "getZKPRequest",
      "outputs": [
        {
          "components": [
            {
              "internalType": "uint256",
              "name": "schema",
              "type": "uint256"
            },
            {
              "internalType": "uint256",
              "name": "slotIndex",
              "type": "uint256"
            },
            {
              "internalType": "uint256",
              "name": "operator",
              "type": "uint256"
            },
            {
              "internalType": "uint256[]",
              "name": "value",
              "type": "uint256[]"
            },
            {
              "internalType": "string",
              "name": "circuitId",
              "type": "string"
            }
          ],
          "internalType": "struct ICircuitValidator.CircuitQuery",
          "name": "",
          "type": "tuple"
        }
      ],
      "stateMutability": "view",
      "type": "function"
    },
    {
      "inputs": [],
      "name": "owner",
      "outputs": [
        {
          "internalType": "address",
          "name": "",
          "type": "address"
        }
      ],
      "stateMutability": "view",
      "type": "function"
    },
    {
      "inputs": [
        {
          "internalType": "address",
          "name": "",
          "type": "address"
        },
        {
          "internalType": "uint64",
          "name": "",
          "type": "uint64"
        }
      ],
      "name": "proofs",
      "outputs": [
        {
          "internalType": "bool",
          "name": "",
          "type": "bool"
        }
      ],
      "stateMutability": "view",
      "type": "function"
    },
    {
      "inputs": [],
      "name": "renounceOwnership",
      "outputs": [],
      "stateMutability": "nonpayable",
      "type": "function"
    },
    {
      "inputs": [
        {
          "internalType": "uint64",
          "name": "",
          "type": "uint64"
        }
      ],
      "name": "requestQueries",
      "outputs": [
        {
          "internalType": "uint256",
          "name": "schema",
          "type": "uint256"
        },
        {
          "internalType": "uint256",
          "name": "slotIndex",
          "type": "uint256"
        },
        {
          "internalType": "uint256",
          "name": "operator",
          "type": "uint256"
        },
        {
          "internalType": "string",
          "name": "circuitId",
          "type": "string"
        }
      ],
      "stateMutability": "view",
      "type": "function"
    },
    {
      "inputs": [
        {
          "internalType": "uint64",
          "name": "",
          "type": "uint64"
        }
      ],
      "name": "requestValidators",
      "outputs": [
        {
          "internalType": "contract ICircuitValidator",
          "name": "",
          "type": "address"
        }
      ],
      "stateMutability": "view",
      "type": "function"
    },
    {
      "inputs": [
        {
          "internalType": "uint64",
          "name": "requestId",
          "type": "uint64"
        },
        {
          "internalType": "contract ICircuitValidator",
          "name": "validator",
          "type": "address"
        },
        {
          "components": [
            {
              "internalType": "uint256",
              "name": "schema",
              "type": "uint256"
            },
            {
              "internalType": "uint256",
              "name": "slotIndex",
              "type": "uint256"
            },
            {
              "internalType": "uint256",
              "name": "operator",
              "type": "uint256"
            },
            {
              "internalType": "uint256[]",
              "name": "value",
              "type": "uint256[]"
            },
            {
              "internalType": "string",
              "name": "circuitId",
              "type": "string"
            }
          ],
          "internalType": "struct ICircuitValidator.CircuitQuery",
          "name": "query",
          "type": "tuple"
        }
      ],
      "name": "setZKPRequest",
      "outputs": [
        {
          "internalType": "bool",
          "name": "",
          "type": "bool"
        }
      ],
      "stateMutability": "nonpayable",
      "type": "function"
    },
    {
      "inputs": [
        {
          "internalType": "uint64",
          "name": "requestId",
          "type": "uint64"
        },
        {
          "internalType": "uint256[]",
          "name": "inputs",
          "type": "uint256[]"
        },
        {
          "internalType": "uint256[2]",
          "name": "a",
          "type": "uint256[2]"
        },
        {
          "internalType": "uint256[2][2]",
          "name": "b",
          "type": "uint256[2][2]"
        },
        {
          "internalType": "uint256[2]",
          "name": "c",
          "type": "uint256[2]"
        }
      ],
      "name": "submitZKPResponse",
      "outputs": [
        {
          "internalType": "bool",
          "name": "",
          "type": "bool"
        }
      ],
      "stateMutability": "nonpayable",
      "type": "function"
    },
    {
      "inputs": [
        {
          "internalType": "uint256",
          "name": "",
          "type": "uint256"
        }
      ],
      "name": "supportedRequests",
      "outputs": [
        {
          "internalType": "uint64",
          "name": "",
          "type": "uint64"
        }
      ],
      "stateMutability": "view",
      "type": "function"
    },
    {
      "inputs": [
        {
          "internalType": "address",
          "name": "newOwner",
          "type": "address"
        }
      ],
      "name": "transferOwnership",
      "outputs": [],
      "stateMutability": "nonpayable",
      "type": "function"
    }
  ],
  "bytecode": "0x60806040523480156200001157600080fd5b5062000032620000266200003860201b60201c565b6200004060201b60201c565b62000104565b600033905090565b60008060009054906101000a900473ffffffffffffffffffffffffffffffffffffffff169050816000806101000a81548173ffffffffffffffffffffffffffffffffffffffff021916908373ffffffffffffffffffffffffffffffffffffffff1602179055508173ffffffffffffffffffffffffffffffffffffffff168173ffffffffffffffffffffffffffffffffffffffff167f8be0079c531659141344cd1fd0a4f28419497f9722a3daafe3b4186f6b6457e060405160405180910390a35050565b612c1880620001146000396000f3fe608060405234801561001057600080fd5b50600436106100ea5760003560e01c8063a87231141161008c578063c76d084511610066578063c76d084514610276578063f1435326146102a6578063f2fde38b146102d6578063fee207e6146102f2576100ea565b8063a8723114146101e6578063b45c0fdf14610216578063b68967e214610246576100ea565b8063715018a6116100c8578063715018a61461015b5780638d94f0bb146101655780638da5cb5b1461019557806396bf4741146101b3576100ea565b80630ddcfe8e146100ef57806337ba95231461011f57806363ec508f1461013d575b600080fd5b61010960048036038101906101049190611505565b610322565b604051610116919061154b565b60405180910390f35b61012761033a565b6040516101349190611638565b60405180910390f35b6101456103c6565b6040516101529190611669565b60405180910390f35b6101636103cb565b005b61017f600480360381019061017a91906116b0565b6103df565b60405161018c91906116ec565b60405180910390f35b61019d610412565b6040516101aa91906116ec565b60405180910390f35b6101cd60048036038101906101c89190611733565b61043b565b6040516101dd94939291906117f0565b60405180910390f35b61020060048036038101906101fb9190611733565b6104f3565b60405161020d919061189b565b60405180910390f35b610230600480360381019061022b91906118b6565b610526565b60405161023d9190611911565b60405180910390f35b610260600480360381019061025b9190611bd6565b610555565b60405161026d9190611911565b60405180910390f35b610290600480360381019061028b9190611733565b6108d4565b60405161029d9190611df4565b60405180910390f35b6102c060048036038101906102bb91906116b0565b610a1d565b6040516102cd9190611669565b60405180910390f35b6102f060048036038101906102eb9190611505565b610a5b565b005b61030c60048036038101906103079190611fd7565b610ade565b6040516103199190611911565b60405180910390f35b60066020528060005260406000206000915090505481565b606060048054806020026020016040519081016040528092919081815260200182805480156103bc57602002820191906000526020600020906000905b82829054906101000a900467ffffffffffffffff1667ffffffffffffffff16815260200190600801906020826007010492830192600103820291508084116103775790505b5050505050905090565b600181565b6103d3610d7f565b6103dd6000610dfd565b565b60056020528060005260406000206000915054906101000a900473ffffffffffffffffffffffffffffffffffffffff1681565b60008060009054906101000a900473ffffffffffffffffffffffffffffffffffffffff16905090565b600260205280600052604060002060009150905080600001549080600101549080600201549080600401805461047090612075565b80601f016020809104026020016040519081016040528092919081815260200182805461049c90612075565b80156104e95780601f106104be576101008083540402835291602001916104e9565b820191906000526020600020905b8154815290600101906020018083116104cc57829003601f168201915b5050505050905084565b60036020528060005260406000206000915054906101000a900473ffffffffffffffffffffffffffffffffffffffff1681565b60016020528160005260406000206020528060005260406000206000915091509054906101000a900460ff1681565b60008073ffffffffffffffffffffffffffffffffffffffff16600360008867ffffffffffffffff1667ffffffffffffffff16815260200190815260200160002060009054906101000a900473ffffffffffffffffffffffffffffffffffffffff1673ffffffffffffffffffffffffffffffffffffffff160361060c576040517f08c379a000000000000000000000000000000000000000000000000000000000815260040161060390612118565b60405180910390fd5b6000600260008867ffffffffffffffff1667ffffffffffffffff1681526020019081526020016000206000015403610679576040517f08c379a0000000000000000000000000000000000000000000000000000000008152600401610670906121aa565b60405180910390fd5b6106cb8686600360008a67ffffffffffffffff1667ffffffffffffffff16815260200190815260200160002060009054906101000a900473ffffffffffffffffffffffffffffffffffffffff16610ec1565b600360008767ffffffffffffffff1667ffffffffffffffff16815260200190815260200160002060009054906101000a900473ffffffffffffffffffffffffffffffffffffffff1673ffffffffffffffffffffffffffffffffffffffff166367e1d50486868686600260008d67ffffffffffffffff1667ffffffffffffffff1681526020019081526020016000206040518663ffffffff1660e01b81526004016107799594939291906125c8565b602060405180830381865afa158015610796573d6000803e3d6000fd5b505050506040513d601f19601f820116820180604052508101906107ba9190612657565b6107f9576040517f08c379a00000000000000000000000000000000000000000000000000000000081526004016107f0906126d0565b60405180910390fd5b60018060003373ffffffffffffffffffffffffffffffffffffffff1673ffffffffffffffffffffffffffffffffffffffff16815260200190815260200160002060008867ffffffffffffffff1667ffffffffffffffff16815260200190815260200160002060006101000a81548160ff0219169083151502179055506108c78686600360008a67ffffffffffffffff1667ffffffffffffffff16815260200190815260200160002060009054906101000a900473ffffffffffffffffffffffffffffffffffffffff16610fd1565b6001905095945050505050565b6108dc6113fa565b600260008367ffffffffffffffff1667ffffffffffffffff1681526020019081526020016000206040518060a00160405290816000820154815260200160018201548152602001600282015481526020016003820180548060200260200160405190810160405280929190818152602001828054801561097b57602002820191906000526020600020905b815481526020019060010190808311610967575b5050505050815260200160048201805461099490612075565b80601f01602080910402602001604051908101604052809291908181526020018280546109c090612075565b8015610a0d5780601f106109e257610100808354040283529160200191610a0d565b820191906000526020600020905b8154815290600101906020018083116109f057829003601f168201915b5050505050815250509050919050565b60048181548110610a2d57600080fd5b9060005260206000209060049182820401919006600802915054906101000a900467ffffffffffffffff1681565b610a63610d7f565b600073ffffffffffffffffffffffffffffffffffffffff168173ffffffffffffffffffffffffffffffffffffffff1603610ad2576040517f08c379a0000000000000000000000000000000000000000000000000000000008152600401610ac990612762565b60405180910390fd5b610adb81610dfd565b50565b6000610ae8610d7f565b600073ffffffffffffffffffffffffffffffffffffffff16600360008667ffffffffffffffff1667ffffffffffffffff16815260200190815260200160002060009054906101000a900473ffffffffffffffffffffffffffffffffffffffff1673ffffffffffffffffffffffffffffffffffffffff1603610bba5760048490806001815401808255809150506001900390600052602060002090600491828204019190066008029091909190916101000a81548167ffffffffffffffff021916908367ffffffffffffffff1602179055505b8160600151600260008667ffffffffffffffff1667ffffffffffffffff1681526020019081526020016000206003019080519060200190610bfc929190611429565b508160400151600260008667ffffffffffffffff1667ffffffffffffffff168152602001908152602001600020600201819055508160800151600260008667ffffffffffffffff1667ffffffffffffffff1681526020019081526020016000206004019081610c6b919061290f565b508160200151600260008667ffffffffffffffff1667ffffffffffffffff168152602001908152602001600020600101819055508160000151600260008667ffffffffffffffff1667ffffffffffffffff168152602001908152602001600020600001819055508160800151600260008667ffffffffffffffff1667ffffffffffffffff1681526020019081526020016000206004019081610d0d919061290f565b5082600360008667ffffffffffffffff1667ffffffffffffffff16815260200190815260200160002060006101000a81548173ffffffffffffffffffffffffffffffffffffffff021916908373ffffffffffffffffffffffffffffffffffffffff160217905550600190509392505050565b610d87611219565b73ffffffffffffffffffffffffffffffffffffffff16610da5610412565b73ffffffffffffffffffffffffffffffffffffffff1614610dfb576040517f08c379a0000000000000000000000000000000000000000000000000000000008152600401610df290612a2d565b60405180910390fd5b565b60008060009054906101000a900473ffffffffffffffffffffffffffffffffffffffff169050816000806101000a81548173ffffffffffffffffffffffffffffffffffffffff021916908373ffffffffffffffffffffffffffffffffffffffff1602179055508173ffffffffffffffffffffffffffffffffffffffff168173ffffffffffffffffffffffffffffffffffffffff167f8be0079c531659141344cd1fd0a4f28419497f9722a3daafe3b4186f6b6457e060405160405180910390a35050565b6000610f54838373ffffffffffffffffffffffffffffffffffffffff16639f442afa6040518163ffffffff1660e01b8152600401602060405180830381865afa158015610f12573d6000803e3d6000fd5b505050506040513d601f19601f82011682018060405250810190610f369190612a62565b81518110610f4757610f46612a8f565b5b6020026020010151611221565b90508073ffffffffffffffffffffffffffffffffffffffff16610f75611219565b73ffffffffffffffffffffffffffffffffffffffff1614610fcb576040517f08c379a0000000000000000000000000000000000000000000000000000000008152600401610fc290612b30565b60405180910390fd5b50505050565b600167ffffffffffffffff168367ffffffffffffffff1614801561103b5750600060066000610ffe611219565b73ffffffffffffffffffffffffffffffffffffffff1673ffffffffffffffffffffffffffffffffffffffff16815260200190815260200160002054145b61107a576040517f08c379a000000000000000000000000000000000000000000000000000000000815260040161107190612bc2565b60405180910390fd5b6000828273ffffffffffffffffffffffffffffffffffffffff16639f442afa6040518163ffffffff1660e01b8152600401602060405180830381865afa1580156110c8573d6000803e3d6000fd5b505050506040513d601f19601f820116820180604052508101906110ec9190612a62565b815181106110fd576110fc612a8f565b5b60200260200101519050600073ffffffffffffffffffffffffffffffffffffffff166005600083815260200190815260200160002060009054906101000a900473ffffffffffffffffffffffffffffffffffffffff1673ffffffffffffffffffffffffffffffffffffffff160361121357806006600061117b611219565b73ffffffffffffffffffffffffffffffffffffffff1673ffffffffffffffffffffffffffffffffffffffff168152602001908152602001600020819055506111c1611219565b6005600083815260200190815260200160002060006101000a81548173ffffffffffffffffffffffffffffffffffffffff021916908373ffffffffffffffffffffffffffffffffffffffff1602179055505b50505050565b600033905090565b600061123c61123761123284611243565b61138f565b6113ec565b9050919050565b600081905060087eff00ff00ff00ff00ff00ff00ff00ff00ff00ff00ff00ff00ff00ff00ff00ff8216901b60087fff00ff00ff00ff00ff00ff00ff00ff00ff00ff00ff00ff00ff00ff00ff00ff008316901c17905060107dffff0000ffff0000ffff0000ffff0000ffff0000ffff0000ffff0000ffff8216901b60107fffff0000ffff0000ffff0000ffff0000ffff0000ffff0000ffff0000ffff00008316901c17905060207bffffffff00000000ffffffff00000000ffffffff00000000ffffffff8216901b60207fffffffff00000000ffffffff00000000ffffffff00000000ffffffff000000008316901c179050604077ffffffffffffffff0000000000000000ffffffffffffffff8216901b60407fffffffffffffffff0000000000000000ffffffffffffffff00000000000000008316901c179050608081901b608082901c179050919050565b6060602067ffffffffffffffff8111156113ac576113ab611931565b5b6040519080825280601f01601f1916602001820160405280156113de5781602001600182028036833780820191505090505b509050816020820152919050565b600060148201519050919050565b6040518060a0016040528060008152602001600081526020016000815260200160608152602001606081525090565b828054828255906000526020600020908101928215611465579160200282015b82811115611464578251825591602001919060010190611449565b5b5090506114729190611476565b5090565b5b8082111561148f576000816000905550600101611477565b5090565b6000604051905090565b600080fd5b600080fd5b600073ffffffffffffffffffffffffffffffffffffffff82169050919050565b60006114d2826114a7565b9050919050565b6114e2816114c7565b81146114ed57600080fd5b50565b6000813590506114ff816114d9565b92915050565b60006020828403121561151b5761151a61149d565b5b6000611529848285016114f0565b91505092915050565b6000819050919050565b61154581611532565b82525050565b6000602082019050611560600083018461153c565b92915050565b600081519050919050565b600082825260208201905092915050565b6000819050602082019050919050565b600067ffffffffffffffff82169050919050565b6115af81611592565b82525050565b60006115c183836115a6565b60208301905092915050565b6000602082019050919050565b60006115e582611566565b6115ef8185611571565b93506115fa83611582565b8060005b8381101561162b57815161161288826115b5565b975061161d836115cd565b9250506001810190506115fe565b5085935050505092915050565b6000602082019050818103600083015261165281846115da565b905092915050565b61166381611592565b82525050565b600060208201905061167e600083018461165a565b92915050565b61168d81611532565b811461169857600080fd5b50565b6000813590506116aa81611684565b92915050565b6000602082840312156116c6576116c561149d565b5b60006116d48482850161169b565b91505092915050565b6116e6816114c7565b82525050565b600060208201905061170160008301846116dd565b92915050565b61171081611592565b811461171b57600080fd5b50565b60008135905061172d81611707565b92915050565b6000602082840312156117495761174861149d565b5b60006117578482850161171e565b91505092915050565b600081519050919050565b600082825260208201905092915050565b60005b8381101561179a57808201518184015260208101905061177f565b60008484015250505050565b6000601f19601f8301169050919050565b60006117c282611760565b6117cc818561176b565b93506117dc81856020860161177c565b6117e5816117a6565b840191505092915050565b6000608082019050611805600083018761153c565b611812602083018661153c565b61181f604083018561153c565b818103606083015261183181846117b7565b905095945050505050565b6000819050919050565b600061186161185c611857846114a7565b61183c565b6114a7565b9050919050565b600061187382611846565b9050919050565b600061188582611868565b9050919050565b6118958161187a565b82525050565b60006020820190506118b0600083018461188c565b92915050565b600080604083850312156118cd576118cc61149d565b5b60006118db858286016114f0565b92505060206118ec8582860161171e565b9150509250929050565b60008115159050919050565b61190b816118f6565b82525050565b60006020820190506119266000830184611902565b92915050565b600080fd5b7f4e487b7100000000000000000000000000000000000000000000000000000000600052604160045260246000fd5b611969826117a6565b810181811067ffffffffffffffff8211171561198857611987611931565b5b80604052505050565b600061199b611493565b90506119a78282611960565b919050565b600067ffffffffffffffff8211156119c7576119c6611931565b5b602082029050602081019050919050565b600080fd5b60006119f06119eb846119ac565b611991565b90508083825260208201905060208402830185811115611a1357611a126119d8565b5b835b81811015611a3c5780611a28888261169b565b845260208401935050602081019050611a15565b5050509392505050565b600082601f830112611a5b57611a5a61192c565b5b8135611a6b8482602086016119dd565b91505092915050565b600067ffffffffffffffff821115611a8f57611a8e611931565b5b602082029050919050565b6000611aad611aa884611a74565b611991565b90508060208402830185811115611ac757611ac66119d8565b5b835b81811015611af05780611adc888261169b565b845260208401935050602081019050611ac9565b5050509392505050565b600082601f830112611b0f57611b0e61192c565b5b6002611b1c848285611a9a565b91505092915050565b600067ffffffffffffffff821115611b4057611b3f611931565b5b602082029050919050565b6000611b5e611b5984611b25565b611991565b90508060408402830185811115611b7857611b776119d8565b5b835b81811015611ba15780611b8d8882611afa565b845260208401935050604081019050611b7a565b5050509392505050565b600082601f830112611bc057611bbf61192c565b5b6002611bcd848285611b4b565b91505092915050565b60008060008060006101408688031215611bf357611bf261149d565b5b6000611c018882890161171e565b955050602086013567ffffffffffffffff811115611c2257611c216114a2565b5b611c2e88828901611a46565b9450506040611c3f88828901611afa565b9350506080611c5088828901611bab565b925050610100611c6288828901611afa565b9150509295509295909350565b611c7881611532565b82525050565b600081519050919050565b600082825260208201905092915050565b6000819050602082019050919050565b6000611cb68383611c6f565b60208301905092915050565b6000602082019050919050565b6000611cda82611c7e565b611ce48185611c89565b9350611cef83611c9a565b8060005b83811015611d20578151611d078882611caa565b9750611d1283611cc2565b925050600181019050611cf3565b5085935050505092915050565b600082825260208201905092915050565b6000611d4982611760565b611d538185611d2d565b9350611d6381856020860161177c565b611d6c816117a6565b840191505092915050565b600060a083016000830151611d8f6000860182611c6f565b506020830151611da26020860182611c6f565b506040830151611db56040860182611c6f565b5060608301518482036060860152611dcd8282611ccf565b91505060808301518482036080860152611de78282611d3e565b9150508091505092915050565b60006020820190508181036000830152611e0e8184611d77565b905092915050565b6000611e21826114c7565b9050919050565b611e3181611e16565b8114611e3c57600080fd5b50565b600081359050611e4e81611e28565b92915050565b600080fd5b600080fd5b600080fd5b600067ffffffffffffffff821115611e7e57611e7d611931565b5b611e87826117a6565b9050602081019050919050565b82818337600083830152505050565b6000611eb6611eb184611e63565b611991565b905082815260208101848484011115611ed257611ed1611e5e565b5b611edd848285611e94565b509392505050565b600082601f830112611efa57611ef961192c565b5b8135611f0a848260208601611ea3565b91505092915050565b600060a08284031215611f2957611f28611e54565b5b611f3360a0611991565b90506000611f438482850161169b565b6000830152506020611f578482850161169b565b6020830152506040611f6b8482850161169b565b604083015250606082013567ffffffffffffffff811115611f8f57611f8e611e59565b5b611f9b84828501611a46565b606083015250608082013567ffffffffffffffff811115611fbf57611fbe611e59565b5b611fcb84828501611ee5565b60808301525092915050565b600080600060608486031215611ff057611fef61149d565b5b6000611ffe8682870161171e565b935050602061200f86828701611e3f565b925050604084013567ffffffffffffffff8111156120305761202f6114a2565b5b61203c86828701611f13565b9150509250925092565b7f4e487b7100000000000000000000000000000000000000000000000000000000600052602260045260246000fd5b6000600282049050600182168061208d57607f821691505b6020821081036120a05761209f612046565b5b50919050565b7f76616c696461746f72206973206e6f742073657420666f72207468697320726560008201527f7175657374206964000000000000000000000000000000000000000000000000602082015250565b600061210260288361176b565b915061210d826120a6565b604082019050919050565b60006020820190508181036000830152612131816120f5565b9050919050565b7f7175657279206973206e6f742073657420666f7220746869732072657175657360008201527f7420696400000000000000000000000000000000000000000000000000000000602082015250565b600061219460248361176b565b915061219f82612138565b604082019050919050565b600060208201905081810360008301526121c381612187565b9050919050565b600082825260208201905092915050565b60006121e682611c7e565b6121f081856121ca565b93506121fb83611c9a565b8060005b8381101561222c5781516122138882611caa565b975061221e83611cc2565b9250506001810190506121ff565b5085935050505092915050565b600060029050919050565b600081905092915050565b6000819050919050565b6000602082019050919050565b61226f81612239565b6122798184612244565b92506122848261224f565b8060005b838110156122b557815161229c8782611caa565b96506122a783612259565b925050600181019050612288565b505050505050565b600060029050919050565b600081905092915050565b6000819050919050565b600081905092915050565b6122f181612239565b6122fb81846122dd565b92506123068261224f565b8060005b8381101561233757815161231e8782611caa565b965061232983612259565b92505060018101905061230a565b505050505050565b600061234b83836122e8565b60408301905092915050565b6000602082019050919050565b61236d816122bd565b61237781846122c8565b9250612382826122d3565b8060005b838110156123b357815161239a878261233f565b96506123a583612357565b925050600181019050612386565b505050505050565b60008160001c9050919050565b6000819050919050565b60006123e56123e0836123bb565b6123c8565b9050919050565b600081549050919050565b60008190508160005260206000209050919050565b600061241882546123d2565b9050919050565b6000600182019050919050565b6000612437826123ec565b6124418185611c89565b935061244c836123f7565b8060005b83811015612484576124618261240c565b61246b8882611caa565b97506124768361241f565b925050600181019050612450565b5085935050505092915050565b60008190508160005260206000209050919050565b600081546124b381612075565b6124bd8186611d2d565b945060018216600081146124d857600181146124ee57612521565b60ff198316865281151560200286019350612521565b6124f785612491565b60005b83811015612519578154818901526001820191506020810190506124fa565b808801955050505b50505092915050565b600060a083016000808401549050612541816123d2565b61254e6000870182611c6f565b506001840154905061255f816123d2565b61256c6020870182611c6f565b506002840154905061257d816123d2565b61258a6040870182611c6f565b506003840185830360608701526125a1838261242c565b9250506004840185830360808701526125ba83826124a6565b925050819250505092915050565b60006101408201905081810360008301526125e381886121db565b90506125f26020830187612266565b6125ff6060830186612364565b61260c60e0830185612266565b81810361012083015261261f818461252a565b90509695505050505050565b612634816118f6565b811461263f57600080fd5b50565b6000815190506126518161262b565b92915050565b60006020828403121561266d5761266c61149d565b5b600061267b84828501612642565b91505092915050565b7f70726f6f6620726573706f6e7365206973206e6f742076616c69640000000000600082015250565b60006126ba601b8361176b565b91506126c582612684565b602082019050919050565b600060208201905081810360008301526126e9816126ad565b9050919050565b7f4f776e61626c653a206e6577206f776e657220697320746865207a65726f206160008201527f6464726573730000000000000000000000000000000000000000000000000000602082015250565b600061274c60268361176b565b9150612757826126f0565b604082019050919050565b6000602082019050818103600083015261277b8161273f565b9050919050565b60006020601f8301049050919050565b600082821b905092915050565b6000600883026127cf7fffffffffffffffffffffffffffffffffffffffffffffffffffffffffffffffff82612792565b6127d98683612792565b95508019841693508086168417925050509392505050565b600061280c61280761280284611532565b61183c565b611532565b9050919050565b6000819050919050565b612826836127f1565b61283a61283282612813565b84845461279f565b825550505050565b600090565b61284f612842565b61285a81848461281d565b505050565b5b8181101561287e57612873600082612847565b600181019050612860565b5050565b601f8211156128c35761289481612491565b61289d84612782565b810160208510156128ac578190505b6128c06128b885612782565b83018261285f565b50505b505050565b600082821c905092915050565b60006128e6600019846008026128c8565b1980831691505092915050565b60006128ff83836128d5565b9150826002028217905092915050565b61291882611760565b67ffffffffffffffff81111561293157612930611931565b5b61293b8254612075565b612946828285612882565b600060209050601f8311600181146129795760008415612967578287015190505b61297185826128f3565b8655506129d9565b601f19841661298786612491565b60005b828110156129af5784890151825560018201915060208501945060208101905061298a565b868310156129cc57848901516129c8601f8916826128d5565b8355505b6001600288020188555050505b505050505050565b7f4f776e61626c653a2063616c6c6572206973206e6f7420746865206f776e6572600082015250565b6000612a1760208361176b565b9150612a22826129e1565b602082019050919050565b60006020820190508181036000830152612a4681612a0a565b9050919050565b600081519050612a5c81611684565b92915050565b600060208284031215612a7857612a7761149d565b5b6000612a8684828501612a4d565b91505092915050565b7f4e487b7100000000000000000000000000000000000000000000000000000000600052603260045260246000fd5b7f6164647265737320696e2070726f6f66206973206e6f7420612073656e64657260008201527f2061646472657373000000000000000000000000000000000000000000000000602082015250565b6000612b1a60288361176b565b9150612b2582612abe565b604082019050919050565b60006020820190508181036000830152612b4981612b0d565b9050919050565b7f70726f6f662063616e206e6f74206265207375626d6974746564206d6f72652060008201527f7468616e206f6e63650000000000000000000000000000000000000000000000602082015250565b6000612bac60298361176b565b9150612bb782612b50565b604082019050919050565b60006020820190508181036000830152612bdb81612b9f565b905091905056fea264697066735822122064332d2fec8daef139e1a70508ed16a3010c6e4530a74009ad0aeea3ed990fa764736f6c63430008110033",
  "linkReferences": {},
  "deployedLinkReferences": {}
}